:020000040800F2
:10000000E80600208901000891010008930100081A
:100010009501000897010008990100080000000000
:100020000000000000000000000000009B0100082C
:100030009D010008000000009F010008952B0008AA
:10004000A3010008A3010008A3010008A301000800
:10005000A3010008A3010008A3010008A3010008F0
:10006000A3010008A3010008A3010008A3010008E0
:10007000C9040008A3010008F5040008A301000852
:10008000A301000821050008A3010008A30100083E
:10009000A3010008A3010008A3010008A3010008B0
:1000A000A3010008A3010008A3010008A3010008A0
:1000B000FD2B0008A3010008252C0008A30100085F
:1000C000A3010008A3010008A3010008A301000880
:1000D000A3010008A3010008A3010008A301000870
:1000E000A3010008A3010008A301000800F002F822
:1000F00000F03AF80AA090E8000C82448344AAF188
:100100000107DA4501D100F02FF8AFF2090EBAE885
:100110000F0013F0010F18BFFB1A43F0010318473B
:10012000E038000000390000103A24BF78C878C1D8
:10013000FAD8520724BF30C830C144BF04680C60ED
:10014000704700000023002400250026103A28BF35
:1001500078C1FBD8520728BF30C148BF0B60704739
:100160001FB51FBD10B510BD00F031F81146FFF7E7
:10017000F7FF02F0DBFF00F04FF803B4FFF7F2FFE8
:1001800003BC00F057F800000948804709480047C1
:10019000FEE7FEE7FEE7FEE7FEE7FEE7FEE7FEE737
:1001A000FEE7FEE704480549054A064B7047000094
:1001B000A52B0008ED000008E8000020E80600205C
:1001C000E8020020E802002070477047704775463B
:1001D00000F02CF8AE4605006946534620F00700B3
:1001E000854618B020B5FFF7DDFFBDE820404FF091
:1001F00000064FF000074FF000084FF0000BAC4630
:10020000ACE8C009ACE8C009ACE8C009ACE8C0097A
:1002100021F007018D46704710B50446AFF300800A
:100220002046BDE81040FFF7A8BF00000048704717
:100230004000002001491820ABBEFEE72600020066
:100240007047000080B5022852D0012800F0EA80F3
:10025000002818BF80BD0420032101F0EFFF01201A
:100260000421012201F0B2F801200421002200F053
:100270006BFD01200421002202F040F8012005213D
:10028000012201F0A3F801200521002200F05CFD0D
:1002900001200521002202F031F801200321012272
:1002A00001F094F801200321002202F027F8012038
:1002B0000321002200F048FD01200321012201F06A
:1002C000CFFB01200621022201F080F80120062147
:1002D000002200F039FD01200621002202F00EF874
:1002E0000320022101F0AAFF042001F0BBFC80BD25
:1002F0000420022101F0A2FF0420032101F09EFF4F
:100300000420042101F09AFF00200A21012201F0BB
:100310005DF800200A21002200F016FD00200A21CD
:10032000002201F0EBFF01200521012201F04EF82F
:1003300001200521002200F007FD012005210022F7
:1003400001F0DCFF01200A21002201F03FF801202A
:100350000A21002201F0D2FF01200A21012200F02F
:1003600079FE00200821012201F030F80020082148
:10037000002200F0E9FC00200821002201F0BEFF6D
:1003800000200921012201F021F80020092100228A
:1003900000F0DAFC00200921002201F0AFFF02206A
:1003A0000721022201F012F802200721002201F0A9
:1003B000A5FF02200721002200F0C6FC04200D2129
:1003C00001F03CFF082001F04DFC01200621022233
:1003D00000F0FCFF01200621002200F0B5FC012006
:1003E0000621002201F08AFF0320022101F026FFEE
:1003F000042001F037FC00200621002200F0E6FF77
:1004000000200621002201F079FF002006210122B0
:1004100000F020FE00200021032200F0D7FF002082
:1004200001214CE00420022101F008FF04200321F7
:1004300001F004FF00200821012200F0C7FF002086
:100440000821002200F080FC00200821002201F099
:1004500055FF00200921012200F0B8FF00200921EA
:10046000002200F071FC00200921002201F046FF6B
:1004700001200621022200F0A9FF0120062100220E
:1004800000F062FC01200621002201F037FF03206A
:10049000022101F0D3FE042001F0E4FB002006213C
:1004A000002200F093FF00200621002201F026FF29
:1004B00000200621012200F0CDFD002000210322B2
:1004C00000F084FF80BD000010B544F60004012058
:1004D0000121C4F2000401F06FFB00BF2068400658
:1004E000FCD52068012120F040002060012000F0B0
:1004F00017F910BD10B543F6000401200321C4F222
:10050000010401F059FB00BF20684006FCD52068BB
:10051000032120F040002060012000F001F910BD0F
:1005200010B544F2004401200621C4F2000401F099
:1005300043FB00BF20684006FCD52068062120F060
:1005400040002060012000F0EBF810BD2DE9F043E1
:1005500081B002280E4625D0012840F08D80DDF8BC
:100560002880DDE90879002000211C46154601F0AD
:1005700065FE082206EB8601C4F2020252F8213021
:1005800002EB810023F0010342F821300168C90722
:10059000FCD1022D1ED0012D20D01DBB016841F4DD
:1005A00080411EE00020012101F048FE082106EBF9
:1005B0008600C4F2020101EB8001D1F8002401F5AC
:1005C000806022F00102C1F8002400BF0168C90761
:1005D000FCD151E0016841F0100102E0016821F016
:1005E00010010160022C06D0012C0CD09CB90168CE
:1005F00021F480610AE0016821F4806101600168F2
:1006000041F4006106E0016841F480610160016825
:1006100021F400610160022F06D0012F0CD09FB998
:10062000016821F480710AE0016821F480710160A1
:10063000016841F4007106E0016841F480710160D5
:10064000016821F400710160B9F1000F06D0B9F121
:10065000010F07D1016841F0800102E0016821F03B
:1006600080010160B8F1000F09D0B8F1010F03D18A
:10067000016841F0400105E001B0BDE8F083016888
:1006800021F04001016001B0BDE8F083042301289E
:10069000C4F2020304D0022818BF704703F5806338
:1006A00001F03F0002EB800001211A6801FA00F01E
:1006B0001043186070470000022815D0012818BFA9
:1006C000704740F2080C01EB8101C4F2020C5CF8A7
:1006D00021300CEB810023F001034CF8213000BFE6
:1006E0000168C907FCD112E001EB81000821C4F2C6
:1006F000020101EB8001D1F8003401F5806023F0A4
:100700000103C1F8003400BF0168C907FCD10168CA
:1007100021F440510160016841EA023101607047F3
:1007200070B508260C4605460128C4F2020604D01E
:10073000022D18BF70BD06F58066284621460022AE
:10074000FFF7A4FF284621460122FFF79FFF284616
:1007500021460222FFF79AFF284621460322FFF78F
:1007600095FF04EB840056F8201041F0010146F893
:10077000201070BD08230128C4F2020304D002280F
:1007800018BF704703F5806301EB81014FF0010C46
:1007900053F821000CFA02F2104343F8210070478D
:1007A000B0B502281BD0012818BFB0BD40F2080C1C
:1007B000C4F2020C01EB810E5CF82E400CEB8E00B3
:1007C00024F001044CF82E400468E407FCD101EB4E
:1007D00081000CEB80008260C36004301DE040F2B9
:1007E000080CC4F2020C01EB81000CEB8005D5F87B
:1007F00000E405F580602EF00104C5F8004400BF58
:100800000568ED07FCD101EB81000CEB8000C0F81E
:100810000824C0F80C3400F2044004990160B0BD13
:1008200008220128C4F2020204D0022818BF70472F
:1008300002F5806201EB810052F8201041F02001A6
:1008400042F820107047000080B5017400F002F8F3
:1008500080BD000080B5007C0138072888BF80BDBE
:10086000DFE800F0043CAF78AFAFAFB004200B215D
:1008700001F0E4FC0320022101F0E0FC042002214D
:1008800001F0DCFC00200821002200F09FFD002088
:100890000821032201F032FD00200821002200F08F
:1008A000D9FB00200921002200F090FD0020092141
:1008B000032201F023FD00200921002200F0CAFBE1
:1008C000192001F08DF901204FF6FF7100F0CEF8EC
:1008D00004200421002202F0B9F980BD0320002188
:1008E00001F0ACFC0320012101F0A8FC0020022152
:1008F00001F0A4FC0020032101F0A0FC00200F2146
:10090000002200F063FD00200F21032201F0F6FC1D
:1009100000200F21002200F09DFB01200321002276
:1009200000F054FD01200321032201F0E7FC012027
:100930000321002200F08EFB1C2001F051F902205F
:100940004FF6FF7100F092F803200421012202F01B
:100950007DF980BD04200B2101F070FC03200021F3
:1009600001F06CFC0420022101F068FC0020002151
:10097000002200F02BFD00200021032201F0BEFC2C
:1009800000200021002200F065FB00200121002250
:1009900000F01CFD00200121032201F0AFFC00202B
:1009A0000121002200F056FB1C2001F019F9022061
:1009B0004FF6FF7100F05AF801200421012202F0E5
:1009C00045F980BD04200D2101F038FC03200221EF
:1009D00001F034FC0420042101F030FC0220062147
:1009E000002200F0F3FC02200621032201F086FC25
:1009F00002200621002200F02DFB02200721002208
:100A000000F0E4FC02200721032201F077FC022021
:100A10000721002200F01EFB2C2001F0E1F8082045
:100A20004FF6FF7100F022F804200421032202F0A7
:100A30000DF980BD40F20001C2F2000151F8200022
:100A4000016921F001010161704700000E2882BF99
:100A50004FF6FF7080B2704740F20001C2F2000111
:100A600051F82000406A80B2704700000E2888BF0D
:100A7000704740F20002C2F2000252F82000002249
:100A8000826242620263C26302648264C26442643C
:100A90000262026003680360036843F0800303603E
:100AA000036803604260436843F030034360826040
:100AB000C260C368C360C36843F00103C36082615E
:100AC000C261826842F00102826082698261826949
:100AD00082618269826182698261826942F0010277
:100AE0008261826942F480728261C1624163816382
:100AF000016A41F011010162016841F001010160E8
:100B00007047000080B501F0C1FB01F09DF80020A6
:100B1000FFF798FB4D2001F095FD582001F092FD64
:100B2000632001F08FFD002001F08CFDFF2001F01B
:100B300089FDFE2001F086FD40F2A000C2F2000017
:100B40000421FFF781FE02F0A1F902F0E7F802F0BC
:100B500015F902F081F902F04FF980BD2DE9F04F4F
:100B600081B0A0F1300440F2B4000D2CC2F20000BC
:100B700000F2D480582100914FF05A0E4FF0000837
:100B80004FF000094FF0000B00264FF0000A00253F
:100B90000027002300210022DFE804F0AB0716271E
:100BA0003A3F4455686A7989AB9900254FF06E0A3F
:100BB0004FF0B40958214FF05A0E4FF064084FF02F
:100BC000B40BB42600914CE058214FF06E0A4FF060
:100BD000B40B4FF0000900914FF05A0E4FF064082B
:100BE000B4260025002700233DE058214FF06E0A6F
:100BF000B4264FF0000900914FF05A0E4FF06408F0
:100C00004FF0000B00250027002300215A2270E03E
:100C1000582100914FF0320E2EE0582100914FF0F4
:100C2000820E29E058214FF0000B4FF0B4090091DB
:100C30004FF05A0E4FF0640800264FF0000A0025CE
:100C400000275A2353E058214FF06E0A4FF0B409A1
:100C500000914FF05A0E4FF000084FF0B40BB4263D
:100C6000002500275A235A215A2242E0612100E040
:100C700050214FF05A0E00914FF000084FF000093C
:100C80004FF0000B00264FF0000A00252DE0582100
:100C900000914FF05A0E4FF000084FF000094FF04E
:100CA000000B00264FF0000A00255A271EE05821AD
:100CB000B42500914FF05A0E4FF000084FF0000994
:100CC0004FF0000B00264FF0000A5A270EE0B42523
:100CD00058214FF05A0E4FF000084FF000094FF026
:100CE000000B00264FF0000A00910027002300218E
:100CF0000022002480F80080447080F802E0009C0C
:100D0000C47080F8049080F805B0867180F807A060
:100D1000057247728372C17202734273817840F226
:100D2000D802C2F200025170C17891704178D1703E
:100D3000817A1171C17A5171017B9171407BD071BF
:100D400001B0BDE8F08F000080B5062800F23481C4
:100D5000DFE800F0040A102C32517400072900F279
:100D60008C8040F6000C6EE0072900F2A68040F669
:100D7000000C26E0072900F2A58040F6044CC4F2DE
:100D8000010CDCF8FC33890023FA01F0800700F045
:100D9000138141F0020023FA00F0800700F10C817A
:100DA000012A00F01A81002A41D005E1072900F24A
:100DB0008E8041F2004C46E0072900F2A48041F207
:100DC000004CC4F2010CDCF80034890023FA01F075
:100DD000800700F0F18041F0020023FA00F0800764
:100DE00000F1EA80012A00F0F080002A40F0E4805F
:100DF0000C208840C5E0072900F2A78041F6040CCA
:100E0000C4F2010CDCF8FC33890023FA01F08007FE
:100E100000F0D28041F0020023FA00F0800700F1D8
:100E2000CB80012A00F0D980002A40F0C5800C2038
:100E3000884023EA0000CCF8FC0380BD072900F2BB
:100E4000A58042F2000CC4F2010CDCF800308900ED
:100E500023FA01F0800700F0AF8041F0020023FA8E
:100E600000F0800700F1A880012A00F0A680002A87
:100E700040F0A2800C20884062E00F2900F29C80A4
:100E800040F6000CC4F2010CDCF804306FF01F00D7
:100E900000EB810E23FA0EF0800700F08D808800B1
:100EA0001E3823FA00F0800700F18680012A00F046
:100EB000AC80002A00F0A1807EE00F297CD840F6AB
:100EC000044C24E00F2977D840F6044C41E00F2968
:100ED00072D841F2004CC4F2010CDCF804306FF01F
:100EE0001F0000EB810E23FA0EF0800764D088000B
:100EF0001E3823FA00F080075ED4012A00F08580B6
:100F0000002A7AD058E00F2956D841F6040CC4F2D2
:100F1000010CDCF800306FF01F0000EB810E23FAAB
:100F20000EF0800748D088001E3823FA00F08007B2
:100F300042D4012A75D0002A3ED10C2000FA0EF0CE
:100F400023EA0000CCF8000080BD0F2934D841F618
:100F5000040CC4F2010CDCF800346FF01F0000EB4D
:100F6000810E23FA0EF0800726D088001E3823FA5F
:100F700000F0800720D4012A5FD0EAB90C2000FAE3
:100F80000EF023EA0000CCF8000480BD0F2913D82E
:100F900042F2000CC4F2010CDCF804306FF01F00C8
:100FA00000EB810E23FA0EF0800705D088001E3872
:100FB00023FA00F080071BD580BD0C208840042256
:100FC00023EA000002FA01F133E00C2088400422F9
:100FD00023EA000002FA01F137E00C2088400422E5
:100FE00023EA000002FA01F10843CCF8FC0380BDBB
:100FF000012A0AD0002A18BF80BD0C2000FA0EF08A
:1010000023EA0000CCF8040080BD0C2000FA0EF0AA
:10101000042123EA000001FA0EF10843CCF8040091
:1010200080BD0C2000FA0EF0042123EA000001FA32
:101030000EF10843CCF8000080BD0C2000FA0EF041
:10104000042123EA000001FA0EF10843CCF8000461
:1010500080BD000080B5062800F2B681DFE800F010
:10106000040D333C45719400072900F2B080002A3A
:1010700000F0AA8140F60C0C8EE0072900F2B08047
:10108000002A00F0A18140F60C0CC4F2010CDCF83F
:10109000F4E38B000320984010EA0E0040F09481A6
:1010A000022A00F04D81012A40F08E8104209840F0
:1010B00008222EEA00009A401043CCF8F4030120E5
:1010C00040F60C4236E0072900F29380002A00F037
:1010D0007B8140F60C4C3CE0072900F29380002A0B
:1010E00000F0728141F20C4C56E0072900F2938027
:1010F000002A00F0698141F20C4CC4F2010CDCF8CA
:10110000F4E38B000320984010EA0E0040F05C816D
:10111000022A00F02281012A40F0568104209840E2
:1011200008222EEA00009A401043CCF8F403012074
:1011300041F60C02C4F201021368884018431060A3
:1011400080BD072900F28980002A00F03D8141F628
:101150000C0CC4F2010CDCF8F4E38B000320984083
:1011600010EA0E0040F03081022A00F0DF80012AF0
:1011700040F02A810420984008222EEA00009A407C
:101180001043CCF8F4038CE0072900F29280002A87
:1011900000F01A8142F20C0CC4F2010C5CF80CEC69
:1011A0008B000320984010EA0E0040F00D81022AC7
:1011B00000F0AA80012A40F007810420984008220C
:1011C0002EEA00009A4010434CF80C0C94E00F29D2
:1011D00000F2FA80002A00F0F78040F60C0C22E0C2
:1011E0000F2900F2F180002A00F0EE8040F60C4C4E
:1011F00019E00F2900F2E880002A00F0E58040F6AF
:101200000C4C32E00F2900F2DF80002A00F0DC8075
:1012100041F20C4C07E00F2900F2D680002A00F0C2
:10122000D38041F60C0CC4F2010C6FF01F035CF884
:1012300008EC03EB81030320984010EA0E0040F015
:10124000C380022A4DD10420984008222EEA0000D3
:101250009A4010434CF8080C5FE00F2900F2B4806C
:10126000002A00F0B18041F60C0CC4F2010C6FF0C2
:101270001F03DCF8F8E303EB81030320984010EA36
:101280000E0040F0A180022A7BD0012A40F09C8011
:101290000420984008222EEA00009A401043CCF81F
:1012A000F8030120DCF8002488401043CCF8000447
:1012B00080BD0F2900F28880002A00F0858042F26C
:1012C0000C0CC4F2010C6FF01F035CF808EC03EB8C
:1012D00081030320984010EA0E0018BF80BD022A47
:1012E00061D0012A70D10420984008222EEA000023
:1012F0009A4010434CF8080C0120DCF8002088408C
:101300001043CCF8000080BD0420984008222EEA4B
:1013100000009A4010434CF80C0C0120DCF800202F
:10132000884022EA0000CCF8000080BD04209840EC
:1013300008222EEA00009A401043CCF8F40329E07A
:101340000420984008222EEA00009A401043CCF86E
:10135000F403012040F60C420BE0042098400822E0
:101360002EEA00009A401043CCF8F403012041F625
:101370000C02C4F201021368884023EA00001060E6
:1013800080BD0420984008222EEA00009A401043B5
:10139000CCF8F8030120DCF80024884022EA0000A1
:1013A000CCF8000480BD0420984008222EEA0000FA
:1013B0009A4010434CF8080C0120DCF800208840CB
:1013C00022EA0000CCF8000080BD0000062800F2F0
:1013D0002B81DFE800F004182C40546884000729B2
:1013E00000F28F80042A00F21F810FF20600DFE86E
:1013F00012F0050048014D015201570188001521E6
:1014000040F60002E7E0072900F29180042A00F28A
:101410000B810FF20600DFE812F0050048014D01D4
:10142000520157018800152140F60002EFE007291C
:1014300000F29380042A00F2F7800FF20600DFE842
:1014400012F0050048014D01520157018800152195
:1014500040F604423AE0072900F29480042A00F2A0
:10146000E3800FF20600DFE812F0050048014D01AD
:10147000520157018800152141F20042ABE00729D3
:1014800000F29580042A00F2CF800FF20600DFE818
:1014900012F0050048014D01520157018800152145
:1014A00041F20042B3E0072900F29D80042A00F2D5
:1014B000BB800FF20600DFE812F00500480155017D
:1014C000620171018800152141F60402C4F2010293
:1014D000D2F8FC33814023EA010104236AE10729A1
:1014E00000F29E80042A88BF70470FF20600DFE8F2
:1014F00002F003B4B9BEC3008800152142F2000215
:1015000069E00F2998BF042A00F28E800FF20400D0
:10151000DFE812F0050056015E0166016E016FF012
:101520001F0000EB8100152140F600028DE00F291D
:1015300098BF042A00F278800FF20400DFE812F06E
:10154000050060016801700178016FF01F0000EB79
:101550008100152140F604423DE00F2998BF042A7E
:1015600062D80FF20600DFE812F005006B0173018C
:101570007B0183016FF01F0000EB8100152140F615
:10158000044244E00F2998BF042A4DD80FF204000A
:10159000DFE812F00500760185018D0195016FF0FD
:1015A0001F0000EB8100152141F200424DE00F29A0
:1015B00098BF042A38D80FF20600DFE812F00500C1
:1015C00088019701A601B6016FF01F0000EB8100B2
:1015D000152141F60402C4F201021368814023EA96
:1015E00001010423AFE10F2998BF042A1CD80FF290
:1015F0000600DFE812F00500AD01BD01CD01DF01FD
:101600006FF01F0000EB8100152141F60402C4F2C7
:101610000102D2F80034814023EA01010423D8E119
:101620000F2998BF042A00D970470FF20600DFE89F
:1016300012F005000402D601E501F5016FF01F006C
:1016400000EB8100152142F20002C4F2010253684E
:10165000814023EA01010423FDE18800152142F2C3
:1016600000023BE18800152142F2000245E18800BA
:10167000152142F200024FE18800152142F20002DA
:101680005AE18800152140F6000227E18800152163
:1016900040F6000231E18800152140F600023BE1EE
:1016A0008800152140F6000246E18800152140F629
:1016B000000254E18800152140F600025FE1880035
:1016C000152140F600026AE18800152140F600026B
:1016D00077E18800152140F604423AE088001521A0
:1016E00040F6044242E08800152140F604424AE0F8
:1016F0008800152140F6044254E08800152141F28B
:101700000042EBE08800152141F20042F5E088003C
:10171000152141F20042FFE08800152141F200420C
:101720000AE18800152141F2004218E188001521E4
:1017300041F2004223E18800152141F200422EE1EE
:101740008800152141F200423BE18800152141F655
:101750000402C4F20102D2F8FC33814023EA010101
:10176000012327E08800152141F60402C4F201029A
:10177000D2F8FC33814023EA010109231AE08800F2
:10178000152141F60402C4F20102D2F8FC3301FA39
:1017900000F023EA0000C2F8FC037047880015211E
:1017A00041F60402C4F20102D2F8FC33814023EA7C
:1017B00001010D2303FA00F00843C2F8FC0370474F
:1017C0006FF01F0000EB8100152140F600025EE083
:1017D0006FF01F0000EB8100152140F6000205E1CB
:1017E0006FF01F0000EB8100152140F600020CE1B4
:1017F0006FF01F0000EB8100152140F6000214E19C
:101800006FF01F0000EB8100152140F6044265E0F7
:101810006FF01F0000EB8100152140F604426CE0E0
:101820006FF01F0000EB8100152140F6044273E0C9
:101830006FF01F0000EB8100152140F604427BE0B1
:101840006FF01F0000EB8100152140F6044286E096
:101850006FF01F0000EB8100152140F604428EE07E
:101860006FF01F0000EB8100152140F6044296E066
:101870006FF01F0000EB8100152140F60442A0E04C
:101880006FF01F0000EB8100152141F20042C4F20D
:1018900001025368814023EA01010123DBE06FF07C
:1018A0001F0000EB8100152141F200429EE06FF025
:1018B0001F0000EB8100152141F20042A5E06FF00E
:1018C0001F0000EB8100152141F20042ADE06FF0F6
:1018D0001F0000EB8100152141F60402C4F2010251
:1018E0001368814023EA010101232CE06FF01F00FF
:1018F00000EB8100152141F60402C4F201021368D5
:10190000814023EA010109231DE06FF01F0000EB75
:101910008100152141F60402C4F20102136801FAA4
:1019200000F023EA0000106070476FF01F0000EB2A
:101930008100152141F60402C4F2010213688140BE
:1019400023EA01010D2303FA00F0084310607047F9
:101950006FF01F0000EB8100152141F60402C4F274
:101960000102D2F80034814023EA0101012330E072
:101970006FF01F0000EB8100152141F60402C4F254
:101980000102D2F80034814023EA0101092320E05A
:101990006FF01F0000EB8100152141F60402C4F234
:1019A0000102D2F8003401FA00F023EA0000C2F884
:1019B000000470476FF01F0000EB8100152141F615
:1019C0000402C4F20102D2F80034814023EA01018A
:1019D0000D2303FA00F00843C2F8000470476FF0CB
:1019E0001F0000EB8100152142F20002C4F2010247
:1019F0005368814023EA010109232CE06FF01F00A6
:101A000000EB8100152142F20002C4F2010253688A
:101A100001FA00F023EA0000506070476FF01F00E9
:101A200000EB8100152142F20002C4F2010253686A
:101A3000814023EA01010D230DE042F200026FF024
:101A40001F00C4F2010200EB8100152153688140A0
:101A500023EA0101012303FA00F0084350607047B4
:101A6000062800F2A780DFE800F0040D161F303EC4
:101A70004E00002A58D0012A40F09C80012040F6F8
:101A80000C0229E0002A53D0012A40F09380012063
:101A900040F60C022EE0002A4ED0012A40F08A8047
:101AA000012040F60C0236E0002A52D0012A40F014
:101AB000818040F60C02C4F201020120D2F8003C01
:101AC00088401843C2F8000C7047002A4ED0012A03
:101AD00070D1012041F60C02C4F201021368884063
:101AE000184310607047002A4BD0012A62D10120B0
:101AF00041F60C02C4F20102D2F8003488401843C7
:101B0000C2F800047047002A48D0012A18BF704765
:101B1000012041F60C02C4F20102D2F800388840DC
:101B20001843C2F800087047012040F60C0220E07C
:101B3000012040F60C0227E040F60C02C4F201023C
:101B40000120D2F80038884023EA0000C2F80008DB
:101B5000704740F60C02C4F201020120D2F8003CAA
:101B6000884023EA0000C2F8000C7047012041F6CB
:101B70000C02C4F201021368884023EA00001060DE
:101B80007047012041F60C02C4F20102D2F8003481
:101B9000884023EA0000C2F80004704741F60C02B6
:101BA000C4F201020120D2F80038884023EA000084
:101BB000C2F800087047000008220128C4F202029F
:101BC00004D0022818BF704702F5806201EB810043
:101BD00052F8201021F0010142F820107047000057
:101BE0001F2808D8012101FA00F04EF20011CEF2B0
:101BF0000001086070473F280AD82038C0B2012190
:101C000001FA00F04EF20011CEF200014860704778
:101C10005F280AD84038C0B2012101FA00F04EF224
:101C20000011CEF200018860704741B2002948BF20
:101C300070476038C0B2012101FA00F04EF2001185
:101C4000CEF20001C86070474EF21000CEF20000E4
:101C5000002142F29E4201604260816001680160A1
:101C6000704700000E2888BF704740F20001C2F2A2
:101C7000000151F820000021016002680260026842
:101C800042F080020260026802600268026002683C
:101C9000026041608160C160C268C260C268C260A7
:101CA0008161C161826942F008028261826942F405
:101CB00000628261C26942F00802C261C26942F4F4
:101CC0000062C261826942F060028261826942F40C
:101CD000C0428261C26942F06002C261C26942F4DC
:101CE000C042C2612322016282624162C162016319
:101CF00041638163C16301648164C1644164416C77
:101D000041F4004141647047FC2800F38680652857
:101D100000F25282DFE810F06600BE005002D900E7
:101D2000F600070114012F022A0140015601630148
:101D300050025002500270015002500250025002F4
:101D40005002500250025002500250025002500203
:101D5000500250025002500250028D0150025002B7
:101D600050025002500250025002500250025002E3
:101D700050025002500250025002500250025002D3
:101D8000500250025002A300500250025002500272
:101D9000500250025002500250025002AA0150025A
:101DA00050025002500250025002500250025002A3
:101DB0005002BA015002500250025002500250022A
:101DC0005002500250025002D30150025002500201
:101DD0005002500250025002500250025002EC01D8
:101DE0005002070242EA01000023B3EB104F40F219
:101DF0002040C4F2000040F076814FF61C4C40F6C3
:101E00002003CFF6FF7CC4F2000343F80C104FF61A
:101E10000C41CFF6FF715A5061E1FD2804D0FE2835
:101E20001DD0FF2818BF704742EA01000023B3EB22
:101E3000104F40F22040C4F2000040F022814FF6E3
:101E4000144C40F62003CFF6FF7CC4F2000343F8A5
:101E50000C104FF60C41CFF6FF715A505FE042EA8A
:101E600001000023B3EB104F40F22040C4F2000009
:101E700040F020814FF6184C40F62003CFF6FF7C4F
:101E8000C4F2000343F80C104FF60C41CFF6FF717B
:101E90005A500BE142EA01000023B3EB104F40F22D
:101EA0002040C4F2000040F083814FF6204C40F601
:101EB0002003CFF6FF7CC4F2000343F80C104FF66A
:101EC0000C41CFF6FF715A5022E142EA0100002393
:101ED000B3EB104F40F22040C4F2000040F06D819F
:101EE0004FF62043CFF6FF73C1504FF60C41CFF6AB
:101EF000FF7142504FF60041CFF6FF71425842F455
:101F000080522BE142EA01000023B3EB104F42F66E
:101F10002040C4F2010040F0B4804161C260016819
:101F200041F00101F7E042EA01000023B3EB104F5A
:101F300042F62040C4F2010040F0BC808161B4E070
:101F400042EA01000023B3EB104F42F62040C4F2F6
:101F5000010040F03B8143F22C43C4F2010399603D
:101F60001A60D0F8001841F0010118E142EA0100BE
:101F70000023B3EB104F42F62040C4F2010040F0C2
:101F80002C8143F22C43C4F2010319611A60D0F88A
:101F9000001841F4807102E142EA01000023B3EB32
:101FA000104F42F62040C4F2010040F01D8143F280
:101FB0002C43C4F2010359611A60D0F8001841F4AF
:101FC0008051ECE042EA01000023B3EB104F42F6EF
:101FD0002040C4F2010040F08680C1617EE042EA08
:101FE00001000023B3EB104F42F62040C4F2010081
:101FF00040F0BC8001628AE042EA01000023B3EBBA
:10200000104F40F22040C4F2000040F0F4804FF640
:102010001443CFF6FF73C1504FF60C41CFF6FF715A
:1020200042504FF60041CFF6FF71425842F0010294
:1020300094E042EA01000023B3EB104F40F220404D
:10204000C4F2000040F0E0804FF61843CFF6FF7373
:10205000C1504FF60C41CFF6FF7142504FF6004190
:10206000CFF6FF71425842F0100277E042EA0100D9
:102070000023B3EB104F40F62000C4F200003FF401
:102080004CAF016821F005010160704742EA010090
:102090000023B3EB104F40F62000C4F2000009D13A
:1020A00040F63803C4F200031960C260016841F0D1
:1020B000100130E0016821F050010160704742EAF0
:1020C00001000023B3EB104F40F62000C4F20000E3
:1020D00009D140F63803C4F200035960C2600168B8
:1020E00041F4807117E0016821F4A061016070473C
:1020F00042EA01000023B3EB104F40F62000C4F287
:10210000000033D140F63803C4F200039960C26086
:10211000016841F48051016050F8201C41F0010138
:1021200040F8201C704742EA01000023B3EB104F37
:1021300040F22040C4F200006FD14FF61C43CFF6AE
:10214000FF73C1504FF60C41CFF6FF7142504FF66E
:102150000041CFF6FF71425842F4807242504FF076
:102160008040016841F0010101607047016821F47D
:1021700080510160704742EA01000023B3EB104F29
:1021800042F62040C4F2010050D143F22C43C4F285
:102190000103D9601A60D0F8001841F01001C0F8AE
:1021A0000018D0F8E01741F00101C0F8E0177047BF
:1021B000016821F48051016070474FF60041CFF66D
:1021C000FF71425822F4805242507047D0F80018F4
:1021D00021F00501C0F800187047D0F8001821F46C
:1021E000A061C0F800187047D0F8001821F48051A1
:1021F000C0F8001870474FF60041CFF6FF71425803
:1022000022F00502425070474FF60041CFF6FF71B1
:10221000425822F05002425070474FF60041CFF62C
:10222000FF71425822F4A06242507047D0F8001863
:1022300021F05001C0F80018704700001F2919D87C
:1022400004280ED0032816D0002818BF704741F28A
:102250001402C4F20202012013688840184310607F
:10226000704741F21402C4F2020201205368884010
:1022700018435060704741F21402C4F20202012078
:1022800093688840184390607047000041F2040052
:10229000C4F2020000210160016841F4E011016014
:1022A000016801600168016001680160016841F432
:1022B0008061016001680160016841F48031016062
:1022C00042F20001C4F202010A6842F002020A600E
:1022D0000021C0F2011140F8041C00BF50F8041C9A
:1022E000B1F1007FFAD3016841F00201016050F8BA
:1022F000041C21F0010140F8041C7047062800F27C
:102300009F81DFE800F0041C344B637B9D000729AC
:1023100000F2AD8040F6000CC4F2010CDCF8003095
:10232000890023FA01F000F00300012840F08881C1
:10233000032A00F06881002A00F0178180E1072954
:1023400000F2B08040F6000CC4F2010CDCF800345E
:10235000890023FA01F000F00300012840F07081A9
:10236000032A00F05681002A00F0208168E1072945
:1023700000F2B28040F6044CC4F2010CDCF8FC33ED
:10238000890023FA01F000F00300012840F0588191
:10239000032A00F04481002A47D051E1072900F2C6
:1023A000B58041F2004CC4F2010CDCF80030890029
:1023B00023FA01F000F00300012840F04181032AD4
:1023C00000F02181002A00F0D08039E1072900F2D5
:1023D000B68041F2004CC4F2010CDCF800348900F4
:1023E00023FA01F000F00300012840F02981032ABC
:1023F00000F00F81002A00F0D98021E1072900F2C6
:10240000BF8041F6040CC4F2010CDCF8FC338900F7
:1024100023FA01F000F00300012840F01181032AA3
:1024200000F0FD80002A40F00B810120884002224C
:1024300023EA000002FA01F10843CCF8FC037047DC
:10244000072900F2BE8042F2000CC4F2010CDCF855
:102450000030890023FA01F000F00300012840F069
:10246000EF80032A00F0CF80002A7ED0E8E00F2919
:1024700000F2E68040F6000CC4F2010CDCF80430F7
:102480006FF01F0000EB810123FA01F000F0030060
:10249000012840F0D580032A00F0C780002A00F010
:1024A000A780CDE00F2900F2CB8040F6044CC4F2A7
:1024B000010CDCF800306FF01F0000EB810123FA03
:1024C00001F000F00300012840F0BA80032A00F078
:1024D0009A80002A49D0B3E00F2900F2B18040F67B
:1024E000044CC4F2010CDCF800346FF01F0000EB68
:1024F000810123FA01F000F00300012840F0A080E0
:10250000032A00F08680002A50D099E00F2900F2BB
:10251000978041F2004CC4F2010CDCF804306FF0FB
:102520001F0000EB810123FA01F000F003000128F5
:1025300040F08680032A78D0002A59D080E00F2905
:102540007ED841F6040CC4F2010CDCF800306FF0C8
:102550001F0000EB810123FA01F000F003000128C5
:102560006ED1032A4FD0002A6AD10120884002226E
:1025700023EA000002FA01F10843CCF8000070479A
:102580000F295DD841F6040CC4F2010CDCF80034CC
:102590006FF01F0000EB810123FA01F000F003004F
:1025A00001284DD1032A34D0002A49D10120884086
:1025B000022223EA000002FA01F10843CCF80004E9
:1025C00070470F293CD842F2000CC4F2010CDCF831
:1025D00004306FF01F0000EB810123FA01F000F0DE
:1025E000030001282CD1032A25D0002A18BF7047E8
:1025F00001208840022223EA000002FA01F1084388
:10260000CCF804007047032088401843CCF8000041
:102610007047032088401843CCF80004704703201B
:1026200088401843CCF8FC037047032088401843C7
:10263000CCF804007047032088401843CCF804000D
:102640007047000010B5652800F27A80DFE810F0CE
:1026500066008F000A02A100B200C300D400E500AA
:10266000F6000D01260137010A020A020A02500192
:102670000A020A020A020A020A020A020A020A02FA
:102680000A020A020A020A020A020A020A020A02EA
:102690000A0262010A020A020A020A020A020A0283
:1026A0000A020A020A020A020A020A020A020A02CA
:1026B0000A020A020A020A020A020A020A02740151
:1026C0000A020A020A020A020A020A020A020A02AA
:1026D0000A020A028B010A020A020A020A020A021A
:1026E0000A020A020A020A020A029D010A020A02F8
:1026F0000A020A020A020A020A020A020A020A027A
:10270000AF010A020A020A020A020A020A020A02C5
:102710000A020A020A02C1010A02D80104200321A6
:102720000324FFF78BFD012000210222FEF74EFE5D
:10273000012000210022FEF707FB012000210CE10F
:10274000FE2800F07481FF2818BF10BD042002216C
:10275000FFF774FD002006210222FEF737FE00205D
:1027600006210022FEF7F0FA002006216FE1042086
:1027700003210324FFF762FD012001210222FEF75D
:1027800025FE012001210022FEF7DEFA01200121B1
:10279000E3E0042002210224FFF750FD0020032182
:1027A0000222FEF713FE002003210022FEF7CCFADE
:1027B0000020BFE004200221FFF740FD0020082197
:1027C0000222FEF703FE002008210022FEF7BCFAD9
:1027D0000020082183E004200221FFF72FFD0020C4
:1027E00009210222FEF7F2FD002009210022FEF756
:1027F000ABFA0020092172E004200421FFF71EFD3E
:10280000022006210222FEF7E1FD0220062100221D
:10281000FEF79AFA0220062137E004200421FFF790
:102820000DFD022007210222FEF7D0FD0220072124
:102830000022FEF789FA0220072126E00420042165
:10284000FFF7FCFC0220082102220824FEF7BEFD4F
:10285000022008210022FEF777FA02200821002238
:10286000FFF74CFD04200D21F7E004200421FFF7C1
:10287000E5FC022009210222FEF7A8FD0220092121
:102880000022FEF761FA022009210022FFF736FD3F
:1028900004200D21FFF7D2FC0824E0E004200221EF
:1028A000FFF7CCFC00200A210222FEF78FFD00205A
:1028B0000A210022FEF748FA00200A210FE0042036
:1028C0000221FFF7BBFC00200B210222FEF77EFD58
:1028D00000200B210022FEF737FA00200B210022F6
:1028E000FFF70CFD04200B21FFF7A8FC0124B6E044
:1028F000042002210224FFF7A1FC00200F21022264
:10290000FEF764FD00200F210022FEF71DFA0020D3
:102910000F2186E004200321FFF790FC0120032112
:1029200002220224FEF752FD012003210022FEF7BD
:102930000BFA0120032174E0042003210324FFF794
:102940007DFC012005210222FEF740FD012005212A
:102950000022FEF7F9F9012005210022FFF7CEFC45
:102960000320012179E0042003210424FFF766FC01
:10297000012006210222FEF729FD01200621002266
:10298000FEF7E2F90120062134E0042003210424AB
:10299000FFF754FC012007210222FEF717FD01205A
:1029A00007210022FEF7D0F90120072122E00420B0
:1029B00003210424FFF742FC012008210222FEF734
:1029C00005FD012008210022FEF7BEF901200821A3
:1029D00010E0042003210424FFF730FC012009212A
:1029E0000222FEF7F3FC012009210022FEF7ACF9D8
:1029F000012009210022FFF781FC032002212CE0A5
:102A000004200321FFF71AFC01200A2102220224DC
:102A1000FEF7DCFC01200A210022FEF795F90120D7
:102A20000A210022FFF76AFC0320002115E00420A0
:102A30000221FFF703FC002007210222FEF7C6FC5B
:102A4000002007210022FEF77FF900200721002245
:102A5000FFF754FC032001210324FFF7EFFB20467E
:102A6000FFF700F910BD000010B504460F280CD187
:102A70004FF4FA62B32988BF42F210722046114621
:102A800049F64042FFF740F910BD084600F0BDFD91
:102A900048F20003C4F26603002200F031FC44F265
:102AA0000003C4F2AF03002200F0C2FD44F20003B1
:102AB000C4F28F03002200F07BFB00F079FD014699
:102AC000204644F62062FFF71FF910BD80B500F0E4
:102AD00001F880BD82B041F204000021C4F202007E
:102AE0000191009150F8041C41F4803140F8041C1D
:102AF00050F8041C01F40031009101990131019159
:102B0000009919B90199B1F5A06FF1D150F8041CE1
:102B1000890354BF0021012100910099012936D178
:102B200042F20001C4F202010A6842F010020A6097
:102B30000A6822F003020A600A6842F002020A6090
:102B40000168016001680160016841F48061016011
:102B5000016821F47C110160016841F4E811016011
:102B600050F8041C41F0807140F8041C50F8041C1B
:102B70008901FBD5016821F003010160016841F082
:102B800002010160016801F00C010829FAD102B0CC
:102B90007047000080B540F2E000C2F2000000681B
:102BA000804780BD80B541F20000C4F20200016898
:102BB000002241F0010101604168CFF6FF0211409F
:102BC000416001684FF6FF72CFF6F6621140016076
:102BD000016821F480210160416821F4FE01416017
:102BE0004FF41F018160FFF771FF4EF60850CEF2DF
:102BF00000004FF00061016080BD000080B5022040
:102C0000FDF724FF40F2D001C2F200010A684FF044
:102C1000FF33002808BF0123D01808600220FDF709
:102C200009FF80BD80B50420FDF710FF40F2D401FC
:102C3000C2F200010A684FF0FF33002808BF0123E9
:102C4000D01808600420FDF7F5FE80BD0E2888BF6F
:102C5000704740F20003C2F2000353F820004FF027
:102C6000000CC0F828C0C0F824C0C0F830C0C0F8BC
:102C700034C0C0F83CC0C0F840C0C0F838C0C0F88C
:102C80001CC0C0F848C0C0F84CC0C0F844C0C0F870
:102C900020C0C0F800C003680360036843F08003ED
:102CA000036003680360C0F804C0C0F808C083680C
:102CB00043EA02128260826811438160C0F80CC04E
:102CC000C168C160C168C160C0F818C0816941F0C5
:102CD0000301816123218162016A41F001010162E6
:102CE0004FF6FF71C162016841F001010160704758
:102CF00080B582B043F6040203461FFA81FCC4F299
:102D0000010201200421CDF800C0FDF749FD01209A
:102D10000421FDF705FD02B080BD000080B584B040
:102D20004FF0000C0120CDE900C001200421012258
:102D30000023CDF808C0FDF709FC01200421FDF7B0
:102D40006FFD012004210022FDF7B6FC04B080BD18
:102D500080B582B044F2044203461FFA81FCC4F2FB
:102D6000000201200521CDF800C0FDF719FD01206A
:102D70000521FDF7D5FC02B080BD000080B584B010
:102D80004FF0000C0120CDE900C0012005210122F7
:102D90000023CDF808C0FDF7D9FB01200521FDF780
:102DA0003FFD012005210022FDF786FC04B080BD17
:102DB000B0B582B044F20045C4F20005EA680346AB
:102DC00042F00800E8602A1D8CB201200621009420
:102DD000FDF7E6FC1120FEF703FF0120062101228A
:102DE000FDF7C8FC2868062120F04000286001207B
:102DF000FDF796FC02B0B0BD80B584B04FF0000C7A
:102E00000120CDE900C00120062102220023CDF8D7
:102E100008C0FDF79BFB01200621FDF701FD012005
:102E200006210022FDF748FC04B080BD80B582B0C9
:102E300044F6040203461FFA81FCC4F2000201209A
:102E40000221CDF800C0FDF7ABFC01200221FDF707
:102E500067FC02B080BD000080B584B04FF0000C6C
:102E60000120CDE900C00120022101220023CDF87C
:102E700008C0FDF76BFB01200221FDF7D1FC01200A
:102E800002210022FDF718FC04B080BD70B50420BB
:102E90000E21FFF7D3F904200221FFF7CFF900201C
:102EA000092102220024FEF791FA00200A210022C3
:102EB000FEF78CFA00200A210122FEF7CBF8002051
:102EC00009210022FDF740FF002009210322FFF71E
:102ED00015FA00200A210322FFF710FA43F60C002E
:102EE000C4F201000460016841F40051016081688E
:102EF00041F080018160816841F04001816001689A
:102F000021F480510160016821F480610160016851
:102F100021F010010160016821F0200101600168C9
:102F200021F040010160016821F080010160016829
:102F300021F480710160016841F0080101600168BD
:102F400041F004010160816821F480718160816831
:102F500021F400718160416821F480514160416831
:102F600021F40051416041F6415140F8041C40F801
:102F70000C4C03201121FFF761F904200221FFF717
:102F80005DF9002002210422FEF720FA002003212F
:102F90000022FEF71BFA002003210122FEF75AF857
:102FA000002002210322FFF7A9F9002003210322B8
:102FB000FFF7A4F944F20C45C4F200052C60286820
:102FC00040F6A56640F400502860A868122140F041
:102FD0008000A860A86840F04000A860286820F43D
:102FE00080502860286820F480602860286820F0DD
:102FF00010002860286820F020002860286820F051
:1030000040002860286820F080002860286820F4AC
:1030100080702860286840F008002860286840F028
:1030200004002860A86820F48070A860A86820F4D4
:103030000070A860686820F480506860686820F4B8
:1030400000506860032045F8046C45F80C4CFFF70D
:10305000F5F804200321FFF7F1F801200A210222EC
:10306000FEF7B4F901200B210022FEF7AFF9012091
:103070000B210122FDF7EEFF01200A210022FDF7BE
:1030800063FE01200A210322FFF738F901200B21FA
:103090000322FFF733F944F60C00C4F20000046089
:1030A000016841F400510160816841F08001816054
:1030B000816841F040018160016821F48051016024
:1030C000016821F480610160016821F01001016054
:1030D000016821F020010160016821F040010160D8
:1030E000016821F080010160016821F480710160B4
:1030F000016841F008010160016841F004010160CC
:10310000816821F480718160816821F4007181609F
:10311000416821F480514160416821F400514160CF
:10312000C5F8FC63C5F8F44370BD0000FDF7EAFC88
:1031300040F2C304C2F2000420460121FFF776FEEC
:1031400040F2C200C2F200000121FFF7D1FD40F2BF
:10315000C400C2F200000A21FFF7FAFD40F2D800D5
:10316000C2F20000FE2101700821FFF721FE40F2AB
:10317000B405C2F2000500BF2078FDF7EFFCA97985
:103180000020FFF771FC69796320FFF76DFC297956
:103190005820FFF769FC29784D20FFF765FCE97995
:1031A000FF20FFF761FC297AFE20FFF75DFCE3E7D3
:1031B00010B591EA030F48BF83F0004300F13E834E
:1031C000841A71EB030C05D2121943EB0C03001B9C
:1031D00061EB0C014FEA1154A4EB135CDFF81CE126
:1031E0001EEA430F18BF9EEA445F73D021EA0451E0
:1031F00023EA0E0343F48013DCF1200E32D322FACB
:103200000CFE10EB0E0023FA0CFE41EB0E01CCF18C
:10321000200E03FA0EFE10EB0E00CCF1200E51F141
:103220000001B1F5801F32D201EB045112FA0EF207
:10323000BDE8104058BF7047401C38BF5FEA4202EB
:1032400018BF7047002814BF20F0010041F10001B1
:103250004FEA410313F5001F38BF7047A1F1C04189
:1032600000F0DEBA012A43EB0302ACF1200CDCF1E2
:103270001F0E32BF4FF0000E23FA0CF310EB0300C9
:1032800041EB0451B4EB115FD0D0A1EB045101F537
:103290008011490801EB04515FEA30000ED350F170
:1032A000000038BF12FA0EFE08D1BDE81040C9E791
:1032B000401C38BF5FEA4202CAD1C3E7BDE81040F4
:1032C0004FEA410313F5001F38BF7047A1F1C04119
:1032D00000F0A6BA9EEA445F08D011EA5E0FBDE88E
:1032E000104004BF01F0004100207047BDE81040CD
:1032F00070B500F047FA00BF64FBBE3E0000E0FF7F
:103300002DE9C04130B4DFF8A0C23CEA111418BF67
:103310003CEA131400F0EC801CEA111481EA030566
:1033200044EAD57418BF1CEA131500F0C780A4EB5B
:10333000050404F17F7404F500344FF0004545EABC
:10334000C12145EAC32341EA505143EA52534FEAAF
:10335000C0204FEAC222994208BF904200F09C80F0
:103360004FEA13650FF24016765D4FEA134506FBF0
:1033700005F7C7F1807706FB07F74FEAD737A7FBBA
:1033800003687642A7FB06CEC8F5803838BFA8F19F
:10339000010807FB08E6A6FB028C4FF0000EE6FBD7
:1033A00003CEDCF1000CCEF1004E38BFAEF1010EC1
:1033B000A6FB0C584FF00007E6FB0E87A1FB08C6E2
:1033C000A0FB07CE16EB0E064FF0000545F10005F9
:1033D000E1FB076515F1E04E7EBFA4F580345FEA9E
:1033E00046066D4116F1800745F100054FEA1727A3
:1033F00047EA05674FEA15254FEA0666A6F1DE465D
:10340000B6F1805F1FD9384605EBC47124F0010C7A
:1034100001EB0C11BCF1FE6F02D8F0BCBDE80081DD
:1034200024425CBF01F5801E9EEAC47F02D4F0BC3A
:10343000BDE80081244238D4A1F1C041F0BCBDE810
:10344000004100F0EDB94FEAD02040EA41504FEA88
:10345000D1214FEAD22242EA43524FEAD323A7FBBB
:10346000028607FB036605FB02661EEA0E0F58BFC5
:10347000A6EB0056B6EB00564FEA520E4EEAC37E5C
:1034800018EB0E0E56EB530EBDD518EB02085E413D
:103490007F1C55F10005B6E74FF480154FF000078B
:1034A0004FF000064FF00008ADE701F1C04101F018
:1034B00000414FF00000F0BCBDE800810CEA13159C
:1034C00011EA0C1F00D00CE013EA0C1F00F025805D
:1034D0004FF0000081EA030101F00041F0BCBDE8BB
:1034E0000081F0BCBDE8004181EA030100F098B919
:1034F000F0BCBDE8004170B500F044F9097EFC3E27
:1035000000F007B84FF0000081EA030101F000412C
:10351000704781EA030100F083B9F0BCBDE80041C7
:1035200022494FF000007047FFFDFBF9F7F5F4F278
:10353000F0EEEDEBE9E8E6E4E3E1E0DEDDDBDAD84E
:10354000D7D5D4D3D1D0CFCDCCCBCAC8C7C6C5C4AC
:10355000C2C1C0BFBEBDBCBBBAB9B8B7B6B5B4B3C3
:10356000B2B1B0AFAEADACABAAA9A8A8A7A6A5A4AE
:10357000A3A3A2A1A09F9F9E9D9C9C9B9A99999872
:103580009797969595949393929191908F8F8E8E15
:103590008D8C8C8B8B8A89898888878786858584A2
:1035A00084838382828181800000FF070000F87F8E
:1035B0004FEA1153A3F58063D3F11E03A8BFD3F1E3
:1035C000200C08DB4FF0004242EAC12252EA50527E
:1035D00032FA03F0704709420BD4102BC4BF00200D
:1035E000704703F5787CBCF1FF3F05D04FF0FF300A
:1035F00070474FF00000704770B500F0C3F800BF8F
:103600004992248000207047F0E7B0FA80F310FA66
:1036100003F10AD0C3F11D0303F580634FEA03529F
:103620004FEA415002EBD12170474FF00000704744
:1036300070B5DFF848C11CEA111E1EBF1CEA131545
:103640009EEA0C0F95EA0C0F00F06F8081EA0304EC
:103650004EEAD47EAE4421EA4C1123EA4C1341F4E5
:10366000801143F48013AEF17F7EA1FB024CA0FBDE
:103670000365361955EB0C05A1FB034C4CF1000317
:10368000A0FB021C16EB0C06654153F10003094236
:1036900018BF46F0010613F4007F0BD14FEA033147
:1036A0004FEA053041EA155140EA165034036FF0F5
:1036B00003020AE04FEAC3214FEAC52041EA55510F
:1036C00040EA5650F4026FF0020202EB2E4201EB88
:1036D000025585EACE710AD05FEA440C18BF24F087
:1036E000004450F1000041F1000120EAD47040F2A2
:1036F000FE7C624500D270BDA84214BF4FF08044EA
:103700004FF04044002E08BF0024BEF1806FA8BFD8
:10371000A1F1C041BDE8704080F2828001F1C0415A
:1037200001F000414FF0000070470CEA13159EEACB
:103730000C0F18BF95EA0C0F06D081EA030E4FF06C
:1037400000000EF0004170BD00F01CF88900013E41
:1037500000F007B800F009B84FEA430C5FEA5C5C80
:1037600008D081EA030100F05BB84FEA410C5FEA40
:103770005C5CF6D102494FF0000070470000FF0783
:103780000000F87F0EF1020E2EF0030E5EF8046BBF
:10379000364205D4012A43EB030515F5001F12D864
:1037A000012841EB010C1CF5001F0CD80ED14FEA8B
:1037B000D17C0CEB4C0C0CF1020C15F5001F08BF72
:1037C0004CEBD37C04E04FF0080C01E04FEAD37CD3
:1037D0000CEB4C0526FA05F606F00706B6F1040CCC
:1037E00006D20EEB860CBDE870404CF0010C604731
:1037F000DFE80CF0090B02024FF00041A1F50021B7
:103800004FF0000070BD19461046012851EB01042D
:1038100018BFD4F5001484BF002001F0004170BD32
:103820000808A0F500114FEA3101704710B591EA80
:10383000030F48BF83F000433FF5C2AC841A71EB1D
:10384000030C07D28CF0004C121943EB0C03001B45
:1038500061EB0C014FEA1154A4EB135CDFF89CE11F
:103860001EEA430F18BF9EEA445F00F0B08021EAD1
:10387000045123EA6E035242C3EB6E0338BF5B1E52
:10388000DCF1200E25D322FA0CFE10EB0E0043FAD9
:103890000CFE41EB0E01CCF1200E03FA0EFE10EBF4
:1038A0000E00CCF1200E51F1000129D401EB04519E
:1038B00012FA0EF2BDE8104058BF7047401C1CBF02
:1038C000B2F1004F704700280CBF491C20F00100E6
:1038D000704712EB020E43EB030218BF4FF0010ECC
:1038E0004EEA4202ACF1200CDCF11E0E54D943FA30
:1038F0000CFE10EB0E00CCF11E0E51F1FF31D5D5B0
:103900000EF1010E12FA0EFE404141EB010101EBF6
:10391000445C5FEA5C5C10D901EB045110EBDE7093
:1039200038BFBEF1004FBDE8104018BF70470028F7
:103930000CBF491C20F00100704730D24FEAD42C54
:1039400024F4006411F500111BD0B1FA81F20B3A96
:10395000A41AA41ED2F12003914030FA03F31943B4
:10396000904001EBCC7101EB0451002CBDE81040FC
:10397000A8BF704701F1C04101F000414FF00000C5
:103980007047B0FA80F310FA03F100D110BDE41AC9
:10399000173C4805C90AE4E701EB045110BD491082
:1039A0004FEA300001EB0451BDE8104002E04FF057
:1039B000000170474A0008BF0042F8D0B2F5001F6E
:1039C00028BF704701F000414FF0000070479EEAA9
:1039D000445F07D011EA5E0FBDE8104004BF00212C
:1039E00000207047BDE8104070B5FFF7CBFE00BF68
:1039F00040DFF63E104683F0004170470000E0FFD4
:103A0000203A0008000000203C00000028010008C7
:103A10005C3A000840000020A806000044010008AD
:103A200000000000002C01400000004000040040A5
:103A300000080040000C004000100040001400404E
:103A400000340140004C014000500140005401404E
:0C3A500000180040001C00400020004056
:040000050800018965
:00000001FF
