:020000040800F2
:10000000B80600208901000891010008930100084A
:100010009501000897010008990100080000000000
:100020000000000000000000000000009B0100082C
:100030009D010008000000009F0100086D280008D5
:10004000A3010008A3010008A3010008A301000800
:10005000A3010008A3010008A3010008A3010008F0
:10006000A3010008A3010008A3010008A3010008E0
:10007000A3010008A3010008A3010008A3010008D0
:10008000A3010008A3010008A3010008A3010008C0
:10009000A3010008A3010008A3010008A3010008B0
:1000A000A3010008A3010008A3010008A3010008A0
:1000B000D5280008A3010008FD280008A3010008B6
:1000C000A3010008A3010008A3010008A301000880
:1000D000A3010008A3010008A3010008A301000870
:1000E000A3010008A3010008A301000800F002F822
:1000F00000F03AF80AA090E8000C82448344AAF188
:100100000107DA4501D100F02FF8AFF2090EBAE885
:100110000F0013F0010F18BFFB1A43F0010318473B
:10012000A8300000C8300000103A24BF78C878C159
:10013000FAD8520724BF30C830C144BF04680C60ED
:10014000704700000023002400250026103A28BF35
:1001500078C1FBD8520728BF30C148BF0B60704739
:100160001FB51FBD10B510BD00F036F81146FFF7E2
:10017000F7FF02F029FC00F054F803B4FFF7F2FF98
:1001800003BC00F057F800000948804709480047C1
:10019000FEE7FEE7FEE7FEE7FEE7FEE7FEE7FEE737
:1001A000FEE7FEE704480549054A064B7047000094
:1001B0007D280008ED000008B8000020B8060020E7
:1001C000B8020020B8020020704770477047000056
:1001D00000487047400000207546FFF7F9FFAE4623
:1001E00005006946534620F00700854618B020B543
:1001F000FFF7D8FFBDE820404FF000064FF00007A2
:100200004FF000084FF0000BAC46ACE8C009ACE87A
:10021000C009ACE8C009ACE8C00921F007018D466F
:10022000704710B50446AFF300802046BDE810408B
:10023000FFF7A3BF01491820ABBEFEE7260002006E
:1002400070470000B0B565280C4600F27A80DFE800
:1002500010F066008F000A02A100B200C300D400B3
:10026000E500F6000D01260137010A020A020A0222
:1002700050010A020A020A020A020A020A020A02D9
:100280000A020A020A020A020A020A020A020A020E
:100290000A020A0262010A020A020A020A020A02A7
:1002A0000A020A020A020A020A020A020A020A02EE
:1002B0000A020A020A020A020A020A020A020A02DE
:1002C00074010A020A020A020A020A020A020A0265
:1002D0000A020A020A028B010A020A020A020A023E
:1002E0000A020A020A020A020A020A029D010A021C
:1002F0000A020A020A020A020A020A020A020A029E
:100300000A02AF010A020A020A020A020A020A02E9
:100310000A020A020A020A02C1010A02D8010420E2
:100320000321032502F03AF801200021022201F006
:1003300015F901200021002200F0CEFD012000214E
:100340000CE1FE2800F07481FF2840F08C8104202D
:10035000022102F023F800200621022201F0FEF81B
:1003600000200621002200F0B7FD002006216FE1E9
:1003700004200321032502F011F8012001210222AB
:1003800001F0ECF801200121002200F0A5FD012080
:100390000121E3E004200221022501F0FFFF0020FB
:1003A0000321022201F0DAF800200321002200F0EC
:1003B00093FD0020BFE00420022101F0EFFF0020A8
:1003C0000821022201F0CAF800200821002200F0D2
:1003D00083FD0020082183E00420022101F0DEFFDC
:1003E00000200921022201F0B9F800200921002291
:1003F00000F072FD0020092172E00420042101F0C8
:10040000CDFF02200621022201F0A8F802200621D9
:10041000002200F061FD0220062137E004200421C3
:1004200001F0BCFF02200721022201F097F8022010
:100430000721002200F050FD0220072126E00420C1
:10044000042101F0ABFF022008210222082501F05F
:1004500085F802200821002200F03EFD022008213C
:10046000002201F0FBFF04200D21F7E0042004210D
:1004700001F094FF02200921022201F06FF802200E
:100480000921002200F028FD02200921002201F0AC
:10049000E5FF04200D2101F081FF0825E0E00420A4
:1004A000022101F07BFF00200A21022201F056F810
:1004B00000200A21002200F00FFD00200A210FE099
:1004C0000420022101F06AFF00200B21022201F02A
:1004D00045F800200B21002200F0FEFC00200B213B
:1004E000002201F0BBFF04200B2101F057FF012582
:1004F000B6E004200221022501F050FF00200F2168
:10050000022201F02BF800200F21002200F0E4FC71
:1005100000200F2186E00420032101F03FFF01208D
:1005200003210222022501F019F8012003210022F3
:1005300000F0D2FC0120032174E0042003210325F4
:1005400001F02CFF01200521022201F007F8012013
:100550000521002200F0C0FC01200521002201F04D
:100560007DFF0320012179E004200321042501F00F
:1005700015FF01200621022200F0F0FF01200621D4
:10058000002200F0A9FC0120062134E00420032110
:10059000042501F003FF01200721022200F0DEFF05
:1005A00001200721002200F097FC0120072122E012
:1005B00004200321042501F0F1FE0120082102227C
:1005C00000F0CCFF01200821002200F085FC012072
:1005D000082110E004200321042501F0DFFE0120A2
:1005E0000921022200F0BAFF01200921002200F0B7
:1005F00073FC01200921002201F030FF03200221B9
:100600002CE00420032101F0C9FE01200A2102226E
:10061000022500F0A3FF01200A21002200F05CFC6B
:1006200001200A21002201F019FF0320002115E01A
:100630000420022101F0B2FE00200721022200F076
:100640008DFF00200721002200F046FC002007213A
:10065000002201F003FF03200121032501F09EFE8B
:10066000284601F0B3FB652C00F27A80DFE814F035
:1006700066008F000A02A100B200C300D400E500AA
:10068000F6000D01260137010A020A020A02500192
:100690000A020A020A020A020A020A020A020A02FA
:1006A0000A020A020A020A020A020A020A020A02EA
:1006B0000A0262010A020A020A020A020A020A0283
:1006C0000A020A020A020A020A020A020A020A02CA
:1006D0000A020A020A020A020A020A020A02740151
:1006E0000A020A020A020A020A020A020A020A02AA
:1006F0000A020A028B010A020A020A020A020A021A
:100700000A020A020A020A020A029D010A020A02F7
:100710000A020A020A020A020A020A020A020A0279
:10072000AF010A020A020A020A020A020A020A02C5
:100730000A020A020A02C1010A02D80104200321A6
:10074000032401F02BFE01200021022200F006FF0D
:1007500001200021002200F0BFFB012000210CE15C
:10076000FE2C00F07481FF2C18BFB0BD04200221C4
:1007700001F014FE00200621022200F0EFFE00200E
:100780000621002200F0A8FB002006216FE10420D2
:100790000321032401F002FE01200121022200F0C6
:1007A000DDFE01200121002200F096FB0120012145
:1007B000E3E004200221022401F0F0FD00200321E7
:1007C000022200F0CBFE00200321002200F084FB77
:1007D0000020BFE00420022101F0E0FD00200821FC
:1007E000022200F0BBFE00200821002200F074FB72
:1007F0000020082183E00420022101F0CFFD002029
:100800000921022200F0AAFE00200921002200F0A6
:1008100063FB0020092172E00420042101F0BEFDE9
:1008200002200621022200F099FE02200621002269
:1008300000F052FB0220062137E00420042101F0E1
:10084000ADFD02200721022200F088FE02200721D0
:10085000002200F041FB0220072126E004200421B1
:1008600001F09CFD022008210222082400F076FEFF
:1008700002200821002200F02FFB02200821002284
:1008800001F0ECFD04200D21F7E00420042101F02B
:1008900085FD02200921022200F060FE02200921CC
:1008A000002200F019FB02200921002201F0D6FDF0
:1008B00004200D2101F072FD0824E0E00420022153
:1008C00001F06CFD00200A21022200F047FE00200A
:1008D0000A21002200F000FB00200A210FE0042082
:1008E000022101F05BFD00200B21022200F036FE08
:1008F00000200B21002200F0EFFA00200B21002243
:1009000001F0ACFD04200B2101F048FD0124B6E00C
:1009100004200221022401F041FD00200F210222C7
:1009200000F01CFE00200F21002200F0D5FA00206C
:100930000F2186E00420032101F030FD0120032176
:100940000222022400F00AFE01200321002200F00E
:10095000C3FA0120032174E004200321032401F0E1
:100960001DFD01200521022200F0F8FD01200521D6
:10097000002200F0B1FA01200521002201F06EFDF5
:100980000320012179E004200321042401F006FD65
:1009900001200621022200F0E1FD012006210022B3
:1009A00000F09AFA0120062134E0042003210424F7
:1009B00001F0F4FC01200721022200F0CFFD01200C
:1009C0000721002200F088FA0120072122E00420FC
:1009D0000321042401F0E2FC01200821022200F09E
:1009E000BDFD01200821002200F076FA0120082137
:1009F00010E004200321042401F0D0FC012009218F
:100A0000022200F0ABFD01200921002200F064FA6F
:100A100001200921002201F021FD032002212CE008
:100A20000420032101F0BAFC01200A210222022441
:100A300000F094FD01200A21002200F04DFA01206F
:100A40000A21002201F00AFD0320002115E0042004
:100A5000022101F0A3FC00200721022200F07EFD0C
:100A600000200721002200F037FA00200721002291
:100A700001F0F4FC03200121032401F08FFC204647
:100A800001F0A4F9B0BD000010B50446007C411E81
:100A9000022904D3082802D0042803D1022000F040
:100AA000C1F92071207910BDB0B50446007C421E0A
:100AB000072A1BD840F2A001C2F20001DFE802F0D1
:100AC0000E0516041616160A022040F2A401C2F200
:100AD000000103E040F2AC01C2F200010D6800F039
:100AE00091F940EA054019214843A060A06802F04E
:100AF00062F948F20003C4F27603002201F0D4FF49
:100B000002F02AF9E060A068E1684FF69862CFF63B
:100B1000FF7201FB0200A060A068B0BD10B50446E2
:100B2000007C411E07290ED80420DFE801F00704ED
:100B30000C060C0C0C07032000E0012000F052F919
:100B400002F062FA206020680021C4F2E00102F0A5
:100B50006FFA014642F20040C4F6F41002F092F936
:100B60000021C4F2702102F063FA2060206810BDF9
:100B700080B5017400F002F880BD000080B5007CF3
:100B80000138072888BF80BDDFE800F0043CAF785B
:100B9000AFAFAFB004200B2101F000FC0320022115
:100BA00001F0FCFB0420022101F0F8FB00200821E9
:100BB000002200F0D3FC00200821032201F04EFCAB
:100BC00000200821002200F00DFB00200921002256
:100BD00000F0C4FC00200921032201F03FFC0020AA
:100BE0000921002200F0FEFA192001F0ADF80120E1
:100BF0004FF6FF7100F024F904200421002201F0D7
:100C000091FE80BD0320002101F0C8FB03200121DB
:100C100001F0C4FB0020022101F0C0FB00200321F1
:100C200001F0BCFB00200F21002200F097FC002007
:100C30000F21032201F012FC00200F21002200F0FE
:100C4000D1FA01200321002200F088FC01200321B9
:100C5000032201F003FC01200321002200F0C2FA6C
:100C60001C2001F071F802204FF6FF7100F0E8F847
:100C700003200421012201F055FE80BD04200B2138
:100C800001F08CFB0320002101F088FB04200221ED
:100C900001F084FB00200021002200F05FFC002016
:100CA0000021032201F0DAFB00200021002200F0E5
:100CB00099FA00200121002200F050FC00200121BF
:100CC000032201F0CBFB00200121002200F08AFA70
:100CD0001C2001F039F802204FF6FF7100F0B0F847
:100CE00001200421012201F01DFE80BD04200D2100
:100CF00001F054FB0320022101F050FB04200421E9
:100D000001F04CFB02200621002200F027FC02200B
:100D10000621032201F0A2FB02200621002200F09E
:100D200061FA02200721002200F018FC02200721AE
:100D3000032201F093FB02200721002200F052FA67
:100D40002C2001F001F808204FF6FF7100F078F830
:100D500004200421032201F0E5FD80BDB0B5044666
:100D6000007C421E072A1BD840F2A001C2F20001FB
:100D7000DFE802F00E0516041616160A022040F2ED
:100D8000A401C2F2000103E040F2AC01C2F2000192
:100D90000D6800F037F840EA054019214843A0608B
:100DA000A06846F61741C008C1F2C161A0FB01016D
:100DB0008808E060A068E1684FF69862CFF6FF729D
:100DC00001FB0200A060E068B0BD000040F200013D
:100DD000C2F2000151F82000016921F00101016116
:100DE000704700000E2882BF4FF6FF7080B2704738
:100DF00040F20001C2F2000151F82000406B80B2C5
:100E0000704700000E2882BF4FF6FF7080B2704717
:100E100040F20001C2F2000151F82000406A80B2A5
:100E2000704700000E2884BFFF20704740F2000189
:100E3000C2F2000151F820000068C0F300107047B2
:100E40000E2888BF704740F20002C2F2000252F83A
:100E500020000022826242620263C26302648264F2
:100E6000C26442640262026003680360036843F084
:100E700080030360036803604260436843F030030B
:100E800043608260C260C368C360C36843F001030B
:100E9000C3608261C261826842F00102826082693D
:100EA000826182698261826982618269826182690A
:100EB00042F001028261826942F480728261C16201
:100EC00041638163016A41F011010162016841F0EF
:100ED000010101607047000080B5062800F23481EE
:100EE000DFE800F0040A102C32517400072900F2E8
:100EF0008C8040F6000C6EE0072900F2A68040F6D8
:100F0000000C26E0072900F2A58040F6044CC4F24C
:100F1000010CDCF8FC33890023FA01F0800700F0B3
:100F2000138141F0020023FA00F0800700F10C81E8
:100F3000012A00F01A81002A41D005E1072900F2B8
:100F40008E8041F2004C46E0072900F2A48041F275
:100F5000004CC4F2010CDCF80034890023FA01F0E3
:100F6000800700F0F18041F0020023FA00F08007D2
:100F700000F1EA80012A00F0F080002A40F0E480CD
:100F80000C208840C5E0072900F2A78041F6040C38
:100F9000C4F2010CDCF8FC33890023FA01F080076D
:100FA00000F0D28041F0020023FA00F0800700F147
:100FB000CB80012A00F0D980002A40F0C5800C20A7
:100FC000884023EA0000CCF8FC0380BD072900F22A
:100FD000A58042F2000CC4F2010CDCF8003089005C
:100FE00023FA01F0800700F0AF8041F0020023FAFD
:100FF00000F0800700F1A880012A00F0A680002AF6
:1010000040F0A2800C20884062E00F2900F29C8012
:1010100040F6000CC4F2010CDCF804306FF01F0045
:1010200000EB810E23FA0EF0800700F08D8088001F
:101030001E3823FA00F0800700F18680012A00F0B4
:10104000AC80002A00F0A1807EE00F297CD840F619
:10105000044C24E00F2977D840F6044C41E00F29D6
:1010600072D841F2004CC4F2010CDCF804306FF08D
:101070001F0000EB810E23FA0EF0800764D0880079
:101080001E3823FA00F080075ED4012A00F0858024
:10109000002A7AD058E00F2956D841F6040CC4F241
:1010A000010CDCF800306FF01F0000EB810E23FA1A
:1010B0000EF0800748D088001E3823FA00F0800721
:1010C00042D4012A75D0002A3ED10C2000FA0EF03D
:1010D00023EA0000CCF8000080BD0F2934D841F687
:1010E000040CC4F2010CDCF800346FF01F0000EBBC
:1010F000810E23FA0EF0800726D088001E3823FACE
:1011000000F0800720D4012A5FD0EAB90C2000FA51
:101110000EF023EA0000CCF8000480BD0F2913D89C
:1011200042F2000CC4F2010CDCF804306FF01F0036
:1011300000EB810E23FA0EF0800705D088001E38E0
:1011400023FA00F080071BD580BD0C2088400422C4
:1011500023EA000002FA01F133E00C208840042267
:1011600023EA000002FA01F137E00C208840042253
:1011700023EA000002FA01F10843CCF8FC0380BD29
:10118000012A0AD0002A18BF80BD0C2000FA0EF0F8
:1011900023EA0000CCF8040080BD0C2000FA0EF019
:1011A000042123EA000001FA0EF10843CCF8040000
:1011B00080BD0C2000FA0EF0042123EA000001FAA1
:1011C0000EF10843CCF8000080BD0C2000FA0EF0B0
:1011D000042123EA000001FA0EF10843CCF80004D0
:1011E00080BD000080B5062800F2B681DFE800F07F
:1011F000040D333C45719400072900F2B080002AA9
:1012000000F0AA8140F60C0C8EE0072900F2B080B5
:10121000002A00F0A18140F60C0CC4F2010CDCF8AD
:10122000F4E38B000320984010EA0E0040F0948114
:10123000022A00F04D81012A40F08E81042098405E
:1012400008222EEA00009A401043CCF8F403012053
:1012500040F60C4236E0072900F29380002A00F0A5
:101260007B8140F60C4C3CE0072900F29380002A79
:1012700000F0728141F20C4C56E0072900F2938095
:10128000002A00F0698141F20C4CC4F2010CDCF838
:10129000F4E38B000320984010EA0E0040F05C81DC
:1012A000022A00F02281012A40F056810420984051
:1012B00008222EEA00009A401043CCF8F4030120E3
:1012C00041F60C02C4F20102136888401843106012
:1012D00080BD072900F28980002A00F03D8141F697
:1012E0000C0CC4F2010CDCF8F4E38B0003209840F2
:1012F00010EA0E0040F03081022A00F0DF80012A5F
:1013000040F02A810420984008222EEA00009A40EA
:101310001043CCF8F4038CE0072900F29280002AF5
:1013200000F01A8142F20C0CC4F2010C5CF80CECD7
:101330008B000320984010EA0E0040F00D81022A35
:1013400000F0AA80012A40F007810420984008227A
:101350002EEA00009A4010434CF80C0C94E00F2940
:1013600000F2FA80002A00F0F78040F60C0C22E030
:101370000F2900F2F180002A00F0EE8040F60C4CBC
:1013800019E00F2900F2E880002A00F0E58040F61D
:101390000C4C32E00F2900F2DF80002A00F0DC80E4
:1013A00041F20C4C07E00F2900F2D680002A00F031
:1013B000D38041F60C0CC4F2010C6FF01F035CF8F3
:1013C00008EC03EB81030320984010EA0E0040F084
:1013D000C380022A4DD10420984008222EEA000042
:1013E0009A4010434CF8080C5FE00F2900F2B480DB
:1013F000002A00F0B18041F60C0CC4F2010C6FF031
:101400001F03DCF8F8E303EB81030320984010EAA4
:101410000E0040F0A180022A7BD0012A40F09C807F
:101420000420984008222EEA00009A401043CCF88D
:10143000F8030120DCF8002488401043CCF80004B5
:1014400080BD0F2900F28880002A00F0858042F2DA
:101450000C0CC4F2010C6FF01F035CF808EC03EBFA
:1014600081030320984010EA0E0018BF80BD022AB5
:1014700061D0012A70D10420984008222EEA000091
:101480009A4010434CF8080C0120DCF800208840FA
:101490001043CCF8000080BD0420984008222EEABA
:1014A00000009A4010434CF80C0C0120DCF800209E
:1014B000884022EA0000CCF8000080BD042098405B
:1014C00008222EEA00009A401043CCF8F40329E0E9
:1014D0000420984008222EEA00009A401043CCF8DD
:1014E000F403012040F60C420BE00420984008224F
:1014F0002EEA00009A401043CCF8F403012041F694
:101500000C02C4F201021368884023EA0000106054
:1015100080BD0420984008222EEA00009A40104323
:10152000CCF8F8030120DCF80024884022EA00000F
:10153000CCF8000480BD0420984008222EEA000068
:101540009A4010434CF8080C0120DCF80020884039
:1015500022EA0000CCF8000080BD0000062800F25E
:101560002B81DFE800F004182C4054688400072920
:1015700000F28F80042A00F21F810FF20600DFE8DC
:1015800012F0050048014D01520157018800152154
:1015900040F60002E7E0072900F29180042A00F2F9
:1015A0000B810FF20600DFE812F0050048014D0143
:1015B000520157018800152140F60002EFE007298B
:1015C00000F29380042A00F2F7800FF20600DFE8B1
:1015D00012F0050048014D01520157018800152104
:1015E00040F604423AE0072900F29480042A00F20F
:1015F000E3800FF20600DFE812F0050048014D011C
:10160000520157018800152141F20042ABE0072941
:1016100000F29580042A00F2CF800FF20600DFE886
:1016200012F0050048014D015201570188001521B3
:1016300041F20042B3E0072900F29D80042A00F243
:10164000BB800FF20600DFE812F0050048015501EB
:10165000620171018800152141F60402C4F2010201
:10166000D2F8FC33814023EA010104236AE107290F
:1016700000F29E80042A88BF70470FF20600DFE860
:1016800002F003B4B9BEC3008800152142F2000283
:1016900069E00F2998BF042A00F28E800FF204003F
:1016A000DFE812F0050056015E0166016E016FF081
:1016B0001F0000EB8100152140F600028DE00F298C
:1016C00098BF042A00F278800FF20400DFE812F0DD
:1016D000050060016801700178016FF01F0000EBE8
:1016E0008100152140F604423DE00F2998BF042AED
:1016F00062D80FF20600DFE812F005006B017301FB
:101700007B0183016FF01F0000EB8100152140F683
:10171000044244E00F2998BF042A4DD80FF2040078
:10172000DFE812F00500760185018D0195016FF06B
:101730001F0000EB8100152141F200424DE00F290E
:1017400098BF042A38D80FF20600DFE812F005002F
:1017500088019701A601B6016FF01F0000EB810020
:10176000152141F60402C4F201021368814023EA04
:1017700001010423AFE10F2998BF042A1CD80FF2FE
:101780000600DFE812F00500AD01BD01CD01DF016B
:101790006FF01F0000EB8100152141F60402C4F236
:1017A0000102D2F80034814023EA01010423D8E188
:1017B0000F2998BF042A00D970470FF20600DFE80E
:1017C00012F005000402D601E501F5016FF01F00DB
:1017D00000EB8100152142F20002C4F201025368BD
:1017E000814023EA01010423FDE18800152142F232
:1017F00000023BE18800152142F2000245E1880029
:10180000152142F200024FE18800152142F2000248
:101810005AE18800152140F6000227E188001521D1
:1018200040F6000231E18800152140F600023BE15C
:101830008800152140F6000246E18800152140F697
:10184000000254E18800152140F600025FE18800A3
:10185000152140F600026AE18800152140F60002D9
:1018600077E18800152140F604423AE0880015210E
:1018700040F6044242E08800152140F604424AE066
:101880008800152140F6044254E08800152141F2F9
:101890000042EBE08800152141F20042F5E08800AB
:1018A000152141F20042FFE08800152141F200427B
:1018B0000AE18800152141F2004218E18800152153
:1018C00041F2004223E18800152141F200422EE15D
:1018D0008800152141F200423BE18800152141F6C4
:1018E0000402C4F20102D2F8FC33814023EA010170
:1018F000012327E08800152141F60402C4F2010209
:10190000D2F8FC33814023EA010109231AE0880060
:10191000152141F60402C4F20102D2F8FC3301FAA7
:1019200000F023EA0000C2F8FC037047880015218C
:1019300041F60402C4F20102D2F8FC33814023EAEA
:1019400001010D2303FA00F00843C2F8FC037047BD
:101950006FF01F0000EB8100152140F600025EE0F1
:101960006FF01F0000EB8100152140F6000205E139
:101970006FF01F0000EB8100152140F600020CE122
:101980006FF01F0000EB8100152140F6000214E10A
:101990006FF01F0000EB8100152140F6044265E066
:1019A0006FF01F0000EB8100152140F604426CE04F
:1019B0006FF01F0000EB8100152140F6044273E038
:1019C0006FF01F0000EB8100152140F604427BE020
:1019D0006FF01F0000EB8100152140F6044286E005
:1019E0006FF01F0000EB8100152140F604428EE0ED
:1019F0006FF01F0000EB8100152140F6044296E0D5
:101A00006FF01F0000EB8100152140F60442A0E0BA
:101A10006FF01F0000EB8100152141F20042C4F27B
:101A200001025368814023EA01010123DBE06FF0EA
:101A30001F0000EB8100152141F200429EE06FF093
:101A40001F0000EB8100152141F20042A5E06FF07C
:101A50001F0000EB8100152141F20042ADE06FF064
:101A60001F0000EB8100152141F60402C4F20102BF
:101A70001368814023EA010101232CE06FF01F006D
:101A800000EB8100152141F60402C4F20102136843
:101A9000814023EA010109231DE06FF01F0000EBE4
:101AA0008100152141F60402C4F20102136801FA13
:101AB00000F023EA0000106070476FF01F0000EB99
:101AC0008100152141F60402C4F20102136881402D
:101AD00023EA01010D2303FA00F008431060704768
:101AE0006FF01F0000EB8100152141F60402C4F2E3
:101AF0000102D2F80034814023EA0101012330E0E1
:101B00006FF01F0000EB8100152141F60402C4F2C2
:101B10000102D2F80034814023EA0101092320E0C8
:101B20006FF01F0000EB8100152141F60402C4F2A2
:101B30000102D2F8003401FA00F023EA0000C2F8F2
:101B4000000470476FF01F0000EB8100152141F683
:101B50000402C4F20102D2F80034814023EA0101F8
:101B60000D2303FA00F00843C2F8000470476FF039
:101B70001F0000EB8100152142F20002C4F20102B5
:101B80005368814023EA010109232CE06FF01F0014
:101B900000EB8100152142F20002C4F201025368F9
:101BA00001FA00F023EA0000506070476FF01F0058
:101BB00000EB8100152142F20002C4F201025368D9
:101BC000814023EA01010D230DE042F200026FF093
:101BD0001F00C4F2010200EB81001521536881400F
:101BE00023EA0101012303FA00F008435060704723
:101BF000062800F2A780DFE800F0040D161F303E33
:101C00004E00002A58D0012A40F09C80012040F666
:101C10000C0229E0002A53D0012A40F093800120D1
:101C200040F60C022EE0002A4ED0012A40F08A80B5
:101C3000012040F60C0236E0002A52D0012A40F082
:101C4000818040F60C02C4F201020120D2F8003C6F
:101C500088401843C2F8000C7047002A4ED0012A71
:101C600070D1012041F60C02C4F2010213688840D1
:101C7000184310607047002A4BD0012A62D101201E
:101C800041F60C02C4F20102D2F800348840184335
:101C9000C2F800047047002A48D0012A18BF7047D4
:101CA000012041F60C02C4F20102D2F8003888404B
:101CB0001843C2F800087047012040F60C0220E0EB
:101CC000012040F60C0227E040F60C02C4F20102AB
:101CD0000120D2F80038884023EA0000C2F800084A
:101CE000704740F60C02C4F201020120D2F8003C19
:101CF000884023EA0000C2F8000C7047012041F63A
:101D00000C02C4F201021368884023EA000010604C
:101D10007047012041F60C02C4F20102D2F80034EF
:101D2000884023EA0000C2F80004704741F60C0224
:101D3000C4F201020120D2F80038884023EA0000F2
:101D4000C2F80008704700001F2808D8012101FAD6
:101D500000F04EF20011CEF20001086070473F28FB
:101D60000AD82038C0B2012101FA00F04EF2001169
:101D7000CEF20001486070475F280AD84038C0B2F0
:101D8000012101FA00F04EF20011CEF2000188604C
:101D9000704741B2002948BF70476038C0B2012186
:101DA00001FA00F04EF20011CEF20001C860704757
:101DB0004EF21000CEF20000002142F22732016004
:101DC0004260816001680160704700000E2888BF92
:101DD000704740F20001C2F2000151F820000021DA
:101DE000016002680260026842F0800202600268DC
:101DF0000260026802600268026041608160C16046
:101E0000C268C260C268C2608161C161826942F019
:101E100008028261826942F400628261C26942F012
:101E20000802C261C26942F40062C261826942F082
:101E300060028261826942F4C0428261C26942F0FA
:101E40006002C261C26942F4C042C26123220162DF
:101E500082624162C162016341638163C163016463
:101E60008164C1644164416C41F400414164704744
:101E7000652800F28380DFE810F06600BC004F02A6
:101E8000D700F4000501120128013E01540172013E
:101E90007F014F024F024F028C014F024F024F024F
:101EA0004F024F024F024F024F024F024F024F02AA
:101EB0004F024F024F024F024F024F02A9014F0241
:101EC0004F024F024F024F024F024F024F024F028A
:101ED0004F024F024F024F024F024F024F024F027A
:101EE0004F024F024F024F02A1004F024F024F021A
:101EF0004F024F024F024F024F024F024F02C601E4
:101F00004F024F024F024F024F024F024F024F0249
:101F10004F024F02D6014F024F024F024F024F02B3
:101F20004F024F024F024F024F02EF014F024F028A
:101F30004F024F024F024F024F024F024F024F0219
:101F400008024F02230242EA01000023B3EB104FC4
:101F500040F22040C4F2000040F092814FF61C4C49
:101F600040F62003CFF6FF7CC4F2000343F80C10C8
:101F70004FF60C41CFF6FF715A507DE1FE281DD07F
:101F8000FF2818BF704742EA01000023B3EB104F4F
:101F900040F22040C4F2000040F040814FF6144C63
:101FA00040F62003CFF6FF7CC4F2000343F80C1088
:101FB0004FF60C41CFF6FF715A505FE042EA010044
:101FC0000023B3EB104F40F22040C4F2000040F079
:101FD0003E814FF6184C40F62003CFF6FF7CC4F24A
:101FE000000343F80C104FF60C41CFF6FF715A5026
:101FF00029E142EA01000023B3EB104F40F22040F8
:10200000C4F2000040F084814FF6204C40F62003DB
:10201000CFF6FF7CC4F2000343F80C104FF60C41DE
:10202000CFF6FF715A5040E142EA01000023B3EBC2
:10203000104F40F22040C4F2000040F06E814FF695
:102040002043CFF6FF73C1504FF60C41CFF6FF711E
:1020500042504FF60041CFF6FF71425842F4805291
:1020600049E142EA01000023B3EB104F42F6204061
:10207000C4F2010040F0D2804161C260016841F0C9
:10208000010115E142EA01000023B3EB104F42F6D3
:102090002040C4F2010040F0DA808161D2E042EADF
:1020A00001000023B3EB104F42F62040C4F20100C0
:1020B00040F03C8143F22C43C4F2010399601A6062
:1020C000D0F8001841F0010140E042EA010000238D
:1020D000B3EB104F42F62040C4F2010040F02D81D6
:1020E00043F22C43C4F20103D9601A60D0F80018FF
:1020F00041F010012AE042EA01000023B3EB104F47
:1021000042F62040C4F2010040F01E8143F22C430D
:10211000C4F2010319611A60D0F8001841F480710B
:1021200014E042EA01000023B3EB104F42F62040D6
:10213000C4F2010040F00F8143F22C43C4F20103CA
:1021400059611A60D0F8001841F48051C0F80018A5
:10215000D0F8E01741F00101C0F8E017704742EAFB
:1021600001000023B3EB104F42F62040C4F20100FF
:1021700040F08680C1617EE042EA01000023B3EBBB
:10218000104F42F62040C4F2010040F0BC800162D2
:102190008AE042EA01000023B3EB104F40F22040F6
:1021A000C4F2000040F0DE804FF61443CFF6FF7318
:1021B000C1504FF60C41CFF6FF7142504FF600412F
:1021C000CFF6FF71425842F0010294E042EA01006A
:1021D0000023B3EB104F40F22040C4F2000040F067
:1021E000CA804FF61843CFF6FF73C1504FF60C412B
:1021F000CFF6FF7142504FF60041CFF6FF714258C3
:1022000042F0100277E042EA01000023B3EB104FE6
:1022100040F62000C4F200003FF42EAF016821F028
:1022200005010160704742EA01000023B3EB104F43
:1022300040F62000C4F2000009D140F63803C4F291
:1022400000031960C260016841F0100130E00168CC
:1022500021F050010160704742EA01000023B3EB16
:10226000104F40F62000C4F2000009D140F63803B8
:10227000C4F200035960C260016841F4807117E044
:10228000016821F4A0610160704742EA0100002367
:10229000B3EB104F40F62000C4F2000033D140F6FB
:1022A0003803C4F200039960C260016841F48051B0
:1022B000016050F8201C41F0010140F8201C7047DB
:1022C00042EA01000023B3EB104F40F22040C4F279
:1022D000000059D14FF61C43CFF6FF73C1504FF6A3
:1022E0000C41CFF6FF7142504FF60041CFF6FF711F
:1022F000425842F4807242504FF08040016841F0F1
:10230000010101607047016821F48051016070474C
:10231000016821F48051016070474FF60041CFF60B
:10232000FF71425822F4805242507047D0F8001892
:1023300021F00501C0F800187047D0F8001821F00E
:102340005001C0F800187047D0F8001821F4A061BF
:10235000C0F800187047D0F8001821F48051C0F878
:10236000001870474FF60041CFF6FF71425822F037
:102370000502425070474FF60041CFF6FF714258B8
:1023800022F05002425070474FF60041CFF6FF71E5
:10239000425822F4A0624250704700001F2919D809
:1023A00004280ED0032816D0002818BF704741F229
:1023B0001402C4F20202012013688840184310601E
:1023C000704741F21402C4F20202012053688840AF
:1023D00018435060704741F21402C4F20202012017
:1023E00093688840184390607047000041F20400F1
:1023F000C4F2020000210160016841F4E0110160B3
:10240000016801600168016001680160016841F4D0
:102410008061016001680160016841F48031016000
:1024200042F20001C4F202010A6842F002020A60AC
:102430000021C0F2011140F8041C00BF50F8041C38
:10244000B1F1007FFAD3016841F00201016050F858
:10245000041C21F0010140F8041C7047062800F21A
:102460009F81DFE800F0041C344B637B9D0007294B
:1024700000F2AD8040F6000CC4F2010CDCF8003034
:10248000890023FA01F000F00300012840F0888160
:10249000032A00F06881002A00F0178180E10729F3
:1024A00000F2B08040F6000CC4F2010CDCF80034FD
:1024B000890023FA01F000F00300012840F0708148
:1024C000032A00F05681002A00F0208168E10729E4
:1024D00000F2B28040F6044CC4F2010CDCF8FC338C
:1024E000890023FA01F000F00300012840F0588130
:1024F000032A00F04481002A47D051E1072900F265
:10250000B58041F2004CC4F2010CDCF800308900C7
:1025100023FA01F000F00300012840F04181032A72
:1025200000F02181002A00F0D08039E1072900F273
:10253000B68041F2004CC4F2010CDCF80034890092
:1025400023FA01F000F00300012840F02981032A5A
:1025500000F00F81002A00F0D98021E1072900F264
:10256000BF8041F6040CC4F2010CDCF8FC33890096
:1025700023FA01F000F00300012840F01181032A42
:1025800000F0FD80002A40F00B81012088400222EB
:1025900023EA000002FA01F10843CCF8FC0370477B
:1025A000072900F2BE8042F2000CC4F2010CDCF8F4
:1025B0000030890023FA01F000F00300012840F008
:1025C000EF80032A00F0CF80002A7ED0E8E00F29B8
:1025D00000F2E68040F6000CC4F2010CDCF8043096
:1025E0006FF01F0000EB810123FA01F000F00300FF
:1025F000012840F0D580032A00F0C780002A00F0AF
:10260000A780CDE00F2900F2CB8040F6044CC4F245
:10261000010CDCF800306FF01F0000EB810123FAA1
:1026200001F000F00300012840F0BA80032A00F016
:102630009A80002A49D0B3E00F2900F2B18040F619
:10264000044CC4F2010CDCF800346FF01F0000EB06
:10265000810123FA01F000F00300012840F0A0807E
:10266000032A00F08680002A50D099E00F2900F25A
:10267000978041F2004CC4F2010CDCF804306FF09A
:102680001F0000EB810123FA01F000F00300012894
:1026900040F08680032A78D0002A59D080E00F29A4
:1026A0007ED841F6040CC4F2010CDCF800306FF067
:1026B0001F0000EB810123FA01F000F00300012864
:1026C0006ED1032A4FD0002A6AD10120884002220D
:1026D00023EA000002FA01F10843CCF80000704739
:1026E0000F295DD841F6040CC4F2010CDCF800346B
:1026F0006FF01F0000EB810123FA01F000F00300EE
:1027000001284DD1032A34D0002A49D10120884024
:10271000022223EA000002FA01F10843CCF8000487
:1027200070470F293CD842F2000CC4F2010CDCF8CF
:1027300004306FF01F0000EB810123FA01F000F07C
:10274000030001282CD1032A25D0002A18BF704786
:1027500001208840022223EA000002FA01F1084326
:10276000CCF804007047032088401843CCF80000E0
:102770007047032088401843CCF8000470470320BA
:1027800088401843CCF8FC03704703208840184366
:10279000CCF804007047032088401843CCF80400AC
:1027A0007047000080B500F001F880BD82B041F2B2
:1027B00004000021C4F202000191009150F8041CB1
:1027C00041F4803140F8041C50F8041C01F400313D
:1027D0000091019901310191009919B90199B1F55F
:1027E000A06FF1D150F8041C890354BF00210121CE
:1027F00000910099012936D142F20001C4F2020190
:102800000A6842F010020A600A6822F003020A60B5
:102810000A6842F002020A60016801600168016012
:10282000016841F480610160016821F47C1101605C
:10283000016841F4E811016050F8041C41F0807116
:1028400040F8041C50F8041C8901FBD5016821F0F4
:1028500003010160016841F002010160016801F0BB
:102860000C010829FAD102B07047000080B540F28F
:10287000B000C2F200000068804780BD80B541F220
:102880000000C4F202000168002241F00101016071
:102890004168CFF6FF021140416001684FF6FF72B8
:1028A000CFF6F66211400160016821F480210160D9
:1028B000416821F4FE0141604FF41F018160FFF780
:1028C00071FF4EF60850CEF200004FF0006101603B
:1028D00080BD000080B50220FEF794FA40F2A4010A
:1028E000C2F200010A684FF0FF33002808BF01233D
:1028F000D01808600220FEF769FA80BD80B5042078
:10290000FEF780FA40F2A801C2F200010A684FF017
:10291000FF33002808BF0123D01808600420FEF709
:1029200055FA80BD0E2888BF704740F20003C2F2FE
:10293000000353F820004FF0000CC0F828C0C0F886
:1029400024C0C0F830C0C0F834C0C0F83CC0C0F8E3
:1029500040C0C0F838C0C0F81CC0C0F848C0C0F8BB
:102960004CC0C0F844C0C0F820C0C0F800C0036824
:102970000360036843F08003036003680360C0F8EA
:1029800004C0C0F808C0836843EA0212826082680B
:1029900011438160C0F80CC0C168C160C168C160EA
:1029A000C0F818C0816941F003018161232181626F
:1029B000016A41F0010101624FF6FF71C1620168D5
:1029C00041F00101016070478AB0FFF70FFDFFF78A
:1029D000EFF958206321FDF735FC05AC20460421B2
:1029E000FEF7C6F8002004900390029001900120A9
:1029F00007210122FEF7B2FD012007210022FFF787
:102A00002DFD012007210022FEF766FA0120062194
:102A10000122FEF7A3FD012006210022FFF71EFD83
:102A2000012006210022FEF757FA0120052101228C
:102A3000FEF794FD012005210022FFF70FFD012084
:102A400005210022FEF748FA012007210122FFF7A5
:102A5000CFF8012006210022FFF7CAF80120052146
:102A60000022FFF7C5F800BF5820FF21FF22FFF723
:102A7000FFF9012005210122FFF7BAF80120062104
:102A80000022FFF7B5F82046FEF70EF80490204626
:102A9000FEF744F803902046FEF760F902902046C6
:102AA000FDF7F2FF0190DFE72DE9C04130B4DFF818
:102AB000A0C23CEA111418BF3CEA131400F0EC80E9
:102AC0001CEA111481EA030544EAD57418BF1CEA14
:102AD000131500F0C780A4EB050404F17F7404F51E
:102AE00000344FF0004545EAC12145EAC32341EADD
:102AF000505143EA52534FEAC0204FEAC222994252
:102B000008BF904200F09C804FEA13650FF2401618
:102B1000765D4FEA134506FB05F7C7F1807706FBA4
:102B200007F74FEAD737A7FB03687642A7FB06CE25
:102B3000C8F5803838BFA8F1010807FB08E6A6FBF6
:102B4000028C4FF0000EE6FB03CEDCF1000CCEF160
:102B5000004E38BFAEF1010EA6FB0C584FF0000737
:102B6000E6FB0E87A1FB08C6A0FB07CE16EB0E0600
:102B70004FF0000545F10005E1FB076515F1E04E5A
:102B80007EBFA4F580345FEA46066D4116F18007EA
:102B900045F100054FEA172747EA05674FEA152573
:102BA0004FEA0666A6F1DE46B6F1805F1FD93846C9
:102BB00005EBC47124F0010C01EB0C11BCF1FE6FAC
:102BC00002D8F0BCBDE8008124425CBF01F5801E44
:102BD0009EEAC47F02D4F0BCBDE80081244238D410
:102BE000A1F1C041F0BCBDE8004100F045B94FEA99
:102BF000D02040EA41504FEAD1214FEAD22242EAA6
:102C000043524FEAD323A7FB028607FB036605FB6B
:102C100002661EEA0E0F58BFA6EB0056B6EB005632
:102C20004FEA520E4EEAC37E18EB0E0E56EB530ED1
:102C3000BDD518EB02085E417F1C55F10005B6E7D3
:102C40004FF480154FF000074FF000064FF00008DA
:102C5000ADE701F1C04101F000414FF00000F0BCD0
:102C6000BDE800810CEA131511EA0C1F00D00CE03E
:102C700013EA0C1F00F025804FF0000081EA0301E9
:102C800001F00041F0BCBDE80081F0BCBDE80041AE
:102C900081EA030100F0F0B8F0BCBDE8004170B576
:102CA00000F09CF8097EFC3E00F007B84FF00000F1
:102CB00081EA030101F00041704781EA030100F05D
:102CC000DBB8F0BCBDE8004122494FF0000070477E
:102CD000FFFDFBF9F7F5F4F2F0EEEDEBE9E8E6E4E1
:102CE000E3E1E0DEDDDBDAD8D7D5D4D3D1D0CFCD68
:102CF000CCCBCAC8C7C6C5C4C2C1C0BFBEBDBCBBA1
:102D0000BAB9B8B7B6B5B4B3B2B1B0AFAEADACAB9B
:102D1000AAA9A8A8A7A6A5A4A3A3A2A1A09F9F9E75
:102D20009D9C9C9B9A999998979796959594939327
:102D3000929191908F8F8E8E8D8C8C8B8B8A8989BE
:102D40008888878786858584848383828281818041
:102D50000000FF070000F87F4FEA41034FEA53539A
:102D6000A3F58063D3F11E03C8BFD3F1210C0CDDA2
:102D70004FF0004242EAC12242EA505232FA03FCCA
:102D80008CEAE17CACEBE1707047102BC4BF0020F3
:102D9000704703F5787CBCF1FF3F04D06FF0004230
:102DA00082EA2100704770B500F018F8499224803B
:102DB00000207047F2E7B0FA80F310FA03F10AD06E
:102DC000C3F11D0303F580634FEA03524FEA4150FC
:102DD00002EBD12170474FF0000070470EF1020E58
:102DE0002EF0030E5EF8046B364205D4012A43EB45
:102DF000030515F5001F12D8012841EB010C1CF545
:102E0000001F0CD80ED14FEAD17C0CEB4C0C0CF10E
:102E1000020C15F5001F08BF4CEBD37C04E04FF00B
:102E2000080C01E04FEAD37C0CEB4C0526FA05F6C2
:102E300006F00706B6F1040C06D20EEB860CBDE8D0
:102E400070404CF0010C6047DFE80CF0090B020207
:102E50004FF00041A1F500214FF0000070BD194670
:102E60001046012851EB010418BFD4F5001484BFAB
:102E7000002001F0004170BD0808A0F500114FEAE4
:102E8000310170474FF47F0C1CEAD0121EBF1CEAC0
:102E9000D11392EA0C0F93EA0C0F00F0858090EAB0
:102EA000010F48BF42F4807240F4000C41F400006E
:102EB0002CF07F4120F07F4000B5A2EB030281425D
:102EC0000FF2081CACEB504E9EF800E0C0F1000081
:102ED0004FEA4E0E00FB0EFC38BF49004FEA2C1C97
:102EE0000CFB0EF34FEACE1E0EEB635E4FEA112C85
:102EF0000EFB0CFC4FEAC1214FEA1C5300FB0311EF
:102F000002F5FA024FEA112C0EFB0CFC4FEA0131DC
:102F10004FEADC4C00FB0C1142EB2242C14228BFBD
:102F200009184CEB03335DF804EB10EB410143EB64
:102F3000C250B2F57C0F38BF704729D512F0F00FA0
:102F40001CBF00F1C04000F0004070470081828348
:102F50008485868788898B8C8D8E8F9192939596A8
:102F600097999A9C9D9FA0A2A3A5A7A8AAACAEB032
:102F7000B2B3B5B7B9BCBEC0C2C5C7C9CCCED1D437
:102F8000D7D9DCDFE2E6E9ECF0F3F7FAFE00000067
:102F90004FEA400C0CF1807CBCF17E4F28BF70479B
:102FA000B0F1C04000F00BB90CEAD11390EA010F68
:102FB00048BF42F48072624538BF634507D213F4BC
:102FC0007F0F16D080EA010000F00040704710B576
:102FD00000F0AFF8097EFC3E00F005B880EA010081
:102FE00000F00040704780EA010000F0004000F06F
:102FF000E6B812F47F0F04BF0248704780EA010070
:1030000000F0DDB80000C07FB0FA80F310FA03F2E0
:10301000C3F19D030AD0D90501EB1220530638BF36
:10302000704700F1010008BF20F001007047000068
:103030004FF47F0C1CEAD0121EBF1CEAD11392EA97
:103040000C0F93EA0C0F00F0478090EA010F48BF85
:1030500042F480724FF0004C4CEA00204CEA01210F
:1030600002EB0302A0FB0113A2F50002002918BF26
:1030700043F001035B0028BF4FEA330342EB2242D7
:103080005FEA132C4CEBC2502EBFBCEB436FB2F582
:103090007C0F70474FEA036CBCF1004F08BF20F073
:1030A0000100B2F57C0F38BF70470BD582F0FF02EC
:1030B00012F5803FC8BF704700F1C040D8BF00F094
:1030C0000040704700F5000C5FEA4C0C48BF7047A9
:1030D000B0F1C04000F073B80CEAD11390EA010FD0
:1030E00048BF42F48072624538BF634504D280EA2B
:1030F000010000F00040704710B500F01AF800BF62
:103100008900013E00F007B800F009B85FEA410C01
:103110005FEA1C6C08D080EA010000F050B85FEA5A
:10312000400C5FEA1C6CF6D14FF00040A0F5800027
:1031300070470EF1020E2EF0030E5EF8044B24428F
:1031400004D44FEA4102B2F17F4F11D84FEA400355
:10315000B3F17F4F0CD80ED14FEAD07C0CEB4C0C66
:103160000CF1020CB2F17F4F08BF4CEBD17C04E0B4
:103170004FF0080C01E04FEAD17C0CEB4C0324FA31
:1031800003F404F00704B4F1040C06D20EEB840C33
:10319000BDE810404CF0010C6047DFE80CF0070878
:1031A00002024FF00040A0F5800010BD084642002A
:1031B00018BFD2F1807288BF00F0004010BDFF211F
:1031C00041EAD050C0057047E831000800000020F7
:1031D0003C000000280100082432000840000020C4
:1031E000780600004401000800000000002C0140A7
:1031F000000000400004004000080040000C0040B7
:10320000001000400014004000340140004C014018
:10321000005001400054014000180040001C0040D4
:04322000002000404A
:040000050800018965
:00000001FF
