:020000040800F2
:10000000680600201D0200082502000827020008DB
:10001000290200082B0200082D0200080000000041
:100020000000000000000000000000002F02000897
:10003000310200080000000033020008DD0700085C
:1000400037020008370200083702000837020008AC
:10005000370200083702000837020008370200089C
:10006000370200083702000837020008370200088C
:10007000370200083702000837020008370200087C
:1000800037020008370200083702000800000000AD
:10009000000000000000000000000000370200081F
:1000A000370200083702000837020008370200084C
:1000B000370200083702000837020008370200083C
:1000C000370200083702000837020008370200082C
:1000D000370200083702000837020008000000005D
:1000E000370200083702000837020008000000004D
:1000F00000000000000000000000000037020008BF
:10010000000000003702000837020008370200082C
:1001100000000000000000000000000000000000DF
:1001200037020008370200083702000837020008CB
:10013000370200080000000000000000000000007E
:10014000000000000000000000000000370200086E
:10015000370200083702000837020008370200089B
:10016000370200083702000800000000000000000D
:10017000000000000000000000000000000000007F
:10018000000000003702000800000000000000002E
:10019000370200083702000800F002F800F02EF8DD
:1001A0000AA090E8000C82448344AAF10107DA45D2
:1001B00001D100F023F8AFF2090EBAE80F0013F0F6
:1001C000010F18BFFB1A43F001031847B0060000E7
:1001D000C00600000023002400250026103A28BF96
:1001E00078C1FBD8520728BF30C148BF0B607047A9
:1001F0001FB500F036FB1FBD10B510BD00F031F883
:100200001146FFF7F5FF00F0FFFA00F04FF803B4D6
:10021000FFF7F2FF03BC00F057F8000009488047E1
:1002200009480047FEE7FEE7FEE7FEE7FEE7FEE7D8
:10023000FEE7FEE7FEE7FEE704480549054A064BF0
:1002400070470000ED0700089901000868000020D1
:10025000680600206802002068020020704770478E
:100260007047754600F02CF8AE46050069465346C7
:1002700020F00700854618B020B5FFF7DDFFBDE888
:1002800020404FF000064FF000074FF000084FF0FD
:10029000000BAC46ACE8C009ACE8C009ACE8C0094A
:1002A000ACE8C00921F007018D46704710B504463F
:1002B000AFF300802046BDE81040FFF7A8BF000064
:1002C000004870470000002001491820ABBEFEE73F
:1002D0002600020070470000072888BF704740F2E0
:1002E000040CC4F2020CDFE800F01804070A0D1039
:1002F00013160CF5806C10E00CF5006C0DE00CF59D
:10030000406C0AE00CF5805C07E00CF5A05C04E0B2
:100310000CF5C05C01E00CF5E05C0120DCF800307D
:10032000884023EA000002FA01F10843CCF80000FB
:100330007047000010B5072800F28380DFE800F066
:1003400004282C30404F607140F2000CC4F2020CC3
:100350004B004FF0030EDCF800400EFA03F024EAE5
:10036000000002FA03F318430729CCF8000069D80B
:10037000022A67D188000F21DCF82020814022EA80
:100380000101022202FA00F00843CCF8200010BD5F
:1003900048000321002326E048000321002333E026
:1003A0000023C4F2020348000321D3F8004C81402B
:1003B00024EA010102FA00F00843C3F8000C10BD62
:1003C00041F20003C4F20203480003211C6881408B
:1003D00024EA010102FA00F00843186010BD480049
:1003E000032141F20003C4F20203D3F80044814028
:1003F00024EA010102FA00F00843C3F8000410BD2A
:100400004800032141F20003C4F20203D3F800487C
:10041000814024EA010102FA00F00843C3F8000811
:1004200010BD41F20003C4F2020348000321D3F8D7
:10043000004C814024EA010102FA00F00843C3F8AD
:10044000000C10BD0F29FCD8022A18BF10BDA1F165
:100450000800C0B280000F21DCF82420814022EA8D
:100460000101022202FA00F00843CCF8240010BD7A
:10047000072800F28E80DFE800F0040C131A2140F8
:10048000502F002A59D0012A40F0838001201422E5
:100490001BE0002A54D0012A7BD10120142233E032
:1004A000002A50D0012A74D1012014223CE0002AF5
:1004B0004CD0012A6DD10120142215E0002A51D020
:1004C000012A66D1012041F21402C4F2020213682B
:1004D0008840184310607047002A4ED0012A18BF88
:1004E0007047012041F21402C4F20202D2F8003C2B
:1004F00088401843C2F8000C7047002A4AD0012AED
:1005000047D1012041F21402C4F20202D2F80034B1
:1005100088401843C2F800047047002A47D0012AD7
:1005200037D1012041F21402C4F20202D2F800389D
:1005300088401843C2F8000870470120142214E0D4
:100540000120142229E00120142233E01422C4F2F5
:1005500002020120D2F8003C884023EA0000C2F8E1
:10056000000C7047012041F21402C4F20202136829
:10057000884023EA00001060704741F21402C4F280
:1005800002020120D2F8003C884023EA0000C2F8B1
:10059000000C7047012041F21402C4F20202D2F8AA
:1005A0000034884023EA0000C2F8000470470120AC
:1005B00041F21402C4F20202D2F80038884023EA61
:1005C0000000C2F80008704710B54EF21004CEF2D9
:1005D000000400F021F860600020A060206840F076
:1005E000010020602068C003FCD5206820F00100D5
:1005F000206010BD4EF2100048F29F62CEF2000063
:100600000021C0F20102016042608160016841F096
:10061000040101607047000048F2A061C0F20101CE
:10062000484370471F2998BF092800D97047DFE861
:1006300000F0050F19232D37414B555F43F630026B
:10064000C4F202020120136888401843106070470A
:1006500043F63002C4F20202012053688840184376
:100660005060704743F63002C4F2020201209368E2
:10067000884018439060704743F63002C4F202028B
:1006800001201369884018431061704743F6300217
:10069000C4F2020201205369884018435061704738
:1006A00043F63002C4F202020120136A8840184364
:1006B0001062704743F63002C4F202020120536A0E
:1006C000884018435062704743F63002C4F2020279
:1006D0000120936A884018439062704743F63002C5
:1006E000C4F202020120136B884018431063704764
:1006F00043F63002C4F202020120536B88401843D3
:100700005063704743F60400C4F202000021016008
:1007100001680160016841F448510160016841F0DD
:1007200019010160016841F0E06101600168016048
:1007300041684160416841F48051416041684160D5
:10074000016841F480010160D0F8FC1341F004011C
:10075000C0F8FC130021C0F2011140F8041C00BFD6
:1007600050F8041CB1F1007FFAD3416841F0020156
:10077000416050F8041C21F0010140F8041C70474E
:10078000072888BF704740F2080CC4F2020CDFE86B
:1007900000F01804070A0D1013160CF5806C10E019
:1007A0000CF5006C0DE00CF5406C0AE00CF5805C7B
:1007B00007E00CF5A05C04E00CF5C05C01E00CF572
:1007C000E05C48000321DCF80030814023EA0101AD
:1007D00002FA00F00843CCF80000704780B540F200
:1007E0006000C2F200000068804780BD4EF688506D
:1007F000CEF20000016841F4700101604FF0006129
:1008000040F8801C70470000FFF77CFF00200221A9
:10081000FFF708FFFFF7EEFE02200D210122FFF790
:1008200089FD02200D210322FFF7AAFF02200D21DE
:100830000022FFF751FD02200D210122FFF718FED3
:1008400002200D210022FFF713FE3220FFF7BCFE2D
:1008500002200D210122FFF70BFE3220FFF7B4FE2C
:10086000EEE7F1EE100A4FF6FF71C0F2C03120EA58
:10087000010040F04070E1EE100A70478C0800085B
:0C0880000000002068060000D401000801
:040000050800021DD0
:00000001FF
